:060000000A128A11122809
:10000800FE00030E83120313B5000408B6000A08A5
:10001800B7007F08B8000A128A11342C0A128A1114
:10002800152883160A168A116C270A128A11D50018
:100038000A168A116D270A128A11D6000A168A1121
:100048006E270A128A11D7000A168A116F270A1218
:100058008A11D8000A168A1170270A128A11D90043
:1000680083120A168A1165270A128A11D4000A1601
:100078008A1166270A128A11D5000A168A1167277B
:100088000A128A11D600831790308400B8300A16F5
:100098008A118E270A128A118313CA308400D53038
:1000A8000A168A118E270A128A11463084005430A3
:1000B8000A168A118E2783010A128A116328C3300F
:1000C80083168500FF30860080308700880189010B
:1000D8000A128A1538250A128A110A128A1500206E
:1000E8000A128A1183160317CF01D0011430D300E6
:1000F8000030D4002830D5000030D6003C30D7007E
:100108000030D800B83084000313550883178000E6
:10011800840A56088000840A57088000840A580810
:100128008000840A590880000317D101D201831284
:1001380003138714831603175108031D252952300A
:100148000313A0008630A1007930A2008630A300F6
:100158000A128A159A220A128A1163308316C40079
:1001680044088312BF00C5300A128A159F200A125C
:100178008A1183160317DA01DB010A128A11EC27A8
:100188000A128A118316C40003175A08C83E84004D
:1001980003134408831780006430C40044088312A2
:1001A800BF00831603175A08C83E840000080A12C5
:1001B8008A159F200A128A11013083160317DA075D
:1001C8000318DB0A0030DB075B08803AFF00803049
:1001D8007F02031DF12804305A02031CC128C830CD
:1001E80083120313B9000130BA00B8308316C40073
:1001F80044088312BB000A128A1538210A128A1190
:1002080039083A04031D112983160317D101D10AAD
:1002180041300313A000863015292E308316A00024
:100228008630A1000A128A1511200A128A1132306A
:10023800B9000030BA000A128A157E200A128A1103
:100248009E280730031385000A168A11A8270A1268
:100258008A110A168A1171270A128A11E830831244
:10026800C2000330C3000A128A15C9210A128A1172
:100278000A128A11FA240A128A110A168A11962772
:100288000A128A110A168A119F270A128A110A1657
:100298008A1177270A128A118312D601D60A87167D
:1002A80062308316A0008630A1000A168A11E92759
:1002B8000A128A11560803195E29861977298316A6
:1002C80003174F085004031D7729031083120313E3
:1002D800871E0314031C74298312031387167729B6
:1002E800831203138712031083120313861D03144A
:1002F8000030031801308316C400C50144080317F1
:10030800CF00031345080317D00066300313A40079
:100318000030A50000300A128A15D2220A128A116A
:100328003A088316A100831239088316A0000A3000
:10033800A2000030A3000A128A150D210A128A11A0
:100348002108A7002008A6000A128A1580230A128D
:100358008A1125088312C900831624088312C8004D
:1003680064308316A4000030A50083124908831660
:10037800A100831248088316A000FF30A2000030B5
:10038800A3000A128A150D210A128A112108A70052
:100398002008A6000A128A1580230A128A11250845
:1003A8000317CE00031324080317CD004D080A12C3
:1003B8008A117C270A128A1166308316A40000303D
:1003C800A50001300A128A15D2220A128A113A08A7
:1003D8008316A100831239088316A0000A30A200F0
:1003E8000030A3000A128A150D210A128A11210869
:1003F800A7002008A6000A128A1580230A128A116B
:1004080025088312CD00831624088312CC00CA3035
:100418008316A4000030A50002300A128A15D222E1
:100428000A128A113A088316A10083123908831622
:10043800A0006430A2000030A3000A128A150D2122
:100448000A128A112108A7002008A6000A128A1594
:1004580080230A128A1125088312CB0083162408E8
:100468008312CA00CA308316B1000030B20070305F
:10047800B3008630B40083124B088316B60083128B
:100488004A088316B50083124F088316B8008312F2
:100498004E088316B70083124D088316BA008312DC
:1004A8004C088316B9000A128A117F260A128A118B
:1004B800CA308312B9000030BA00BD308316C400B8
:1004C80044088312BB000A128A1538210A128A11BD
:1004D80039083A040319C02ABD30B9000130BA00FE
:1004E8000A128A1543200A128A1139088316C40091
:1004F80083123A088316C500CA308312B900003047
:10050800BA000A128A1543200A128A113A08831679
:100518004506031D932A83123908831644060319D6
:10052800AA2A6330C40044088312BF0001300A12AB
:100538008A159F200A128A1162308316A00086301D
:10054800A1000A168A11E9270A128A11CA308316ED
:10055800A0000030A1000A128A1511200A128A117F
:10056800CA308316C40044088312B900BD300A1289
:100578008A1528200A128A11831603175408831231
:1005880003134D02031DCE2A831603175308831243
:1005980003134C0203185A2B4F08831603175802EB
:1005A800031DDC2A831203134E0883160317570210
:1005B80003185A2B831203134B088316031756028A
:1005C800031DEC2A831203134A08831603175502E6
:1005D80003185A2B83120313871080308800831660
:1005E80003175208031D562B90300313B100013036
:1005F800B2004230B3008530B40083124B08831632
:10060800B60083124A088316B50083124F08831672
:10061800B80083124E088316B70083124D0883165C
:10062800BA0083124C088316B9000A128A117F2671
:100638000A128A1190308312BA000130BB000A12E4
:100648008A1530220A128A1101308316A000003060
:10065800A10083124A088316C4004408A2000A12A3
:100668008A1582240A128A110230A0000030A100E3
:1006780083124E088316C4004408A2000A128A1581
:1006880082240A128A110330A0000030A1008312CC
:100698004C088316C4004408A2000A128A15822452
:1006A8000A128A110317D201D20A602B8316031784
:1006B800D201831203138714831203138C1E282C70
:1006C800D9300A128A1564220A128A118C12182C3F
:1006D800013083120313C0000030C1000A128A15CA
:1006E8003F240A128A11FF3A0319C62B9030831649
:1006F800B1000130B2008C30B3008530B400013055
:100708008312C0000030C1000A128A153F240A1261
:100718008A118316C400C5014408B5004508B6000F
:1007280002308312C0000030C1000A128A153F242B
:100738000A128A118316C600C7014608B70047087F
:10074800B80003308312C0000030C1000A128A15B5
:100758003F240A128A118316C800C9014808B90043
:100768004908BA000A128A117F260A128A119030A3
:100778008312BA000130BB000A128A1530220A120D
:100788008A11282C1730BA008630BB000A128A1545
:1007980030220A128A11282C0A30D3000030D400E3
:1007A8003230D5000030D6004630D7000030D800AF
:1007B800B13083120313BA008530BB000A128A15C0
:1007C80030220A128A11282C1430D3000030D400A9
:1007D8002830D5000030D6003C30D7000030D80093
:1007E800D33083120313BA008530BB000A128A156E
:1007F80030220A128A11282C1E30D3000030D4006F
:100808001E30D5000030D6003230D7000030D80076
:10081800F53083120313BA008530BB000A128A151B
:1008280030220A128A11282C831603175908613AB4
:100838000319D02B033A0319E82B013A0319002CAA
:100848000B3A03196C2B282C143083120313B900AC
:100858000030BA000A128A157E200A128A115E290F
:100868000B1DC92C56080319C92C0B110E30520642
:100878005304031DC32C46080E02B3004708031C8B
:10088800470A0F02B4003308CE003408CF000F081F
:10089800C7000E08C600540A0319550A03198D2CFF
:1008A80054084802B3005508031C550A4902B4000D
:1008B800003034023D3003193302031C8D2C4908E3
:1008C8005502031D692C4808540203188D2C9030DA
:1008D800A0000130A1001C30A2008530A3004B0805
:1008E800A5004A08A4004F08A7004E08A6004D0816
:1008F800A9004C08A8000A128A150F270A128A11A3
:100908009030F1000130F2000A128A15FC210A1217
:100918008A114908D5004808D4000130D0070318C7
:10092800D10A0030D107D201D30137305006510423
:10093800031DC92C9030A0000130A1006730A2002F
:100948008530A3004B08A5004A08A4004F08A7005B
:100958004E08A6004D08A9004C08A8000A128A15DE
:100968000F270A128A119030F1000130F2000A12A2
:100978008A15FC210A128A11D001D101C92C013033
:10098800D2070318D30A0030D3078B1CEF2C8B1027
:1009980056080319D92C8712871407119701633059
:1009A800B3003308F6000830E12C87160F309700A3
:1009B8006330B3003308F6000F300A128A15C020DE
:1009C8000A128A115608031DEB2C0130EC2C00305A
:1009D800B3003308D6003808FF0037088A00360805
:1009E8008400350E8300FE0E7E0E09008316071262
:1009F8008312871507160800FF1B0A2D83137F181B
:100A080083170008840A0319FF0A08007F087F3942
:100A18008A000408840A0319FF0A8200013400349A
:100A28000A34003464340034E8340334103427348E
:100A38007B342234733422343A34223465346D34AE
:100A480072346734573422342C34203422347434CA
:100A580022343A34253464342C3420342234773424
:100A680022343A34253464342C3420342234683423
:100A780022343A34253464347D3400347B342234CF
:100A8800733422343A34223465346D347234673422
:100A980022342C3420342234743422343A34253429
:100AA80064342C3420342234773422343A342534D4
:100AB80064342C3420342234683422343A342534D3
:100AC80064347D3400347B342234733422343A3431
:100AD800223431346D3469346E3422342C34203469
:100AE8002234743422343A34253464342C34203497
:100AF8002234773422343A34253464342C34203484
:100B08002234683422343A34253464347D34003451
:100B18007B342234733422343A34223468346934CE
:100B28007334743422342C34203422347434223410
:100B38003A34253464342C34203422347734223443
:100B48003A34253464342C34203422346834223442
:100B58003A34253464347D3400347B34223473349D
:100B680022343A34223465346D346534723467344F
:100B780065346E3463347934203463346F346E34BE
:100B880066346934673420346F34703474346934AB
:100B98006F346E342034413422347D3400347B3455
:100BA8002234733422343A34223465346D34653453
:100BB8007234673465346E34633479342034633482
:100BC8006F346E3466346934673420346F3470346B
:100BD800743469346F346E342034423422347D34B2
:100BE80000347B342234733422343A34223465346A
:100BF8006D3465347234673465346E3463347934F3
:100C0800203463346F346E34663469346734203486
:100C18006F347034743469346F346E342034433430
:100C280022347D3400347B342234733422343A3411
:100C380022346E346F34203465346D346534723444
:100C4800673465346E3463346934653473342234FC
:100C58007D340034503461347334733477346F34F2
:100C680072346434203469346E3463346F347234CB
:100C780072346534633474340034503461347334FA
:100C8800733477346F3472346434203463346F349B
:100C980072347234653463347434003457346534D0
:100CA80061347434683465347234203453347434A1
:100CB8006134743469346F346E34003454346534B8
:100CC8006D3470342F34573469346E3464342F34AF
:100CD800483475346D340034253464342F34253465
:100CE80064342F342534643400345034613473341C
:100CF80073343A340034B530BB003B08BE003408C6
:100D0800BC003308BB00B30A0319B40A3C088312B9
:100D1800FF0083163B08840083120A128A110025FB
:100D28000A128A118316BD003D08C300430803193F
:100D3800752F253043060319B12E4308BB0031082F
:100D480084008317321C83133B0880000130B107ED
:100D58000318B20A0030B207832EBF013408BC0062
:100D68003308BB00B30A0319B40A3C088312FF0016
:100D780083163B08840083120A128A1100250A127E
:100D88008A118316C300003A0319752F643A0319B0
:100D9800D12E0D3A0319D12E832E3E0884008313D9
:100DA8000008C100840A0008C2000230BB003B08EA
:100DB800BE07C21FE82E0330BB003B08BF04C109B1
:100DC800C209C10A0319C20AC301C30A4308BB0006
:100DD8003B07123E840085300318013E8312FF0052
:100DE8000A128A1100250A128A118316BC0083127E
:100DF8000A128A1100250A128A118316BD003D08BD
:100E08004202031D092F3C084102031C132F013025
:100E1800BB003B08C30705304306031DEA2E3F0805
:100E280003390319262F2D30BB003108840083179E
:100E3800321C83133B0880000130B1070318B20A43
:100E48000030B2074308BB003B08C000FF30BB00BE
:100E58003B08C007400A0319832E0A30AB00003054
:100E6800AC004008BB003B07123E840085300318E5
:100E7800013E8312FF000A128A1100250A128A1104
:100E88008316A40083120A128A1100250A128A11F5
:100E98008316A5004208A7004108A6000A128A1571
:100EA80080230A128A112508AE002408AD000A1210
:100EB8008A1597210A128A112B08303EBC003C087B
:100EC800C3004308BB00310884008317321C831316
:100ED8003B0880000130B1070318B20A0030B2079E
:100EE8002A2F310884008317321C831380010800DD
:100EF8000313B4000030A3000030A2000030A100AA
:100F0800FF30A0003408AE00AF01B001B1013108D4
:100F18008312BC00831630088312BB0083162F0887
:100F28008312BA0083162E088312B900831612089A
:100F3800B200B3010310B20DB30D0310B20DB30D1F
:100F4800033032048312BD00003083163304831249
:100F5800BE00BF01BE1BBF033F08C0000A128A15AE
:100F6800BE230A128A113C088316A70083123B0885
:100F78008316A60083123A088316A500831239083F
:100F88008316A4000A128A15DA240A128A11210883
:100F9800B6002008B5003608AF003508AE000310CB
:100FA800AF0CAE0C0310AF0CAE0C2E0883129500DC
:100FB800831635080339AE0003300310AE0DFF3E2B
:100FC800031DE12F03102E0D0F3883129700080020
:100FD800783083120313C1004108C20078304206FA
:100FE800031DFC2F0A128A154B260A128A11EF2FAD
:040FF80042080800A3
:101000008316081088100811881106148614061516
:1010100083128815081588140814061486140615FA
:10102000080063308312C5004508BF00C0300A12B3
:101030008A159F200A128A15831620088312C10080
:10104000831621088312C2000A128A15E3200800C1
:10105000BB003B08BA003A08BC003908840083137F
:101060000008BA003C0884003A0883178000000892
:10107000031908000130BA003A08BC070130BA0071
:101080003A08B9072D283908BB003A08BC003B08CC
:10109000840083173C1C8313000803195628013071
:1010A000BB070318BC0A0030BC07472839083B02BD
:1010B000B9003A08031C3A0A3C02BA000800F301DE
:1010C000F40171087402031D672870087302031885
:1010D0000800F501000000000000000000000130E1
:1010E000F2007208F507C8307502031C6A28013047
:1010F000F3070318F40A0030F4076128BC01BD01AE
:101100003A083D02031D862839083C0203180800EE
:10111000BE0100000000000000000000013083124A
:101120000313BB003B08BE07C8303E02031C8928DE
:101130000130BC070318BD0A0030BD0780288312A8
:101140000313C00089144008880063303F06031968
:10115000091164303F06031909150330B900003046
:10116000BA000A128A157E200A128A1589100330E5
:10117000B9000030BA000A128A157E2089140800CE
:10118000F70089147708880063307606031909117F
:1011900064307606031909150330F0000030F100C1
:1011A0000A128A155F200A128A1583120313891006
:1011B0000330F0000030F1000A128A155F2083121C
:1011C000031389140800C40144084107840042083D
:1011D0000318420AFF000A128A1100250A128A1512
:1011E000003A031908006430C3004308BF004408F4
:1011F0004107840042080318420AFF000A128A11BC
:1012000000250A128A150A128A159F200A128A15C9
:101210000130C3004308C407E4288312C301C4019A
:101220008316201C1C2922088312C3070318C40A32
:10123000831623088312C407013083160310A20DFE
:10124000A30DFF3E031D1E2901300310A10CA00CAD
:10125000FF3E031D252920082104031D10298312A8
:1012600044088316A100831243088316A0000800D7
:101270004B293908840083173A1C8313000803198B
:101280005F290130B9070318BA0A0030BA070130E4
:10129000BC003C08BB073B08840083170008BC0067
:1012A0003908840083173A1C83130008BD003C08EA
:1012B0003D02BE003E08BF003F08031939293F0820
:1012C000B900BA01B91BBA030800780879040319F8
:1012D0009229FD01FD0AF91B792901300310F80D4F
:1012E000F90DFF3E031D6E290130FC007C08FD074F
:1012F0006B2979087B02031D7F2978087A02031C79
:1013000087297808FA027908031CFB03FB020130E5
:101310000310F90CF80CFF3E031D88290130FD0273
:10132000031D79297B08F9007A08F80008002B08CA
:101330002C040319C429B001B00AAC1BAB2901303D
:101340000310AB0DAC0DFF3E031DA0290130AF0013
:101350002F08B0079D292C082E02031DB1292B0848
:101360002D02031CB9292B08AD022C08031CAE0367
:10137000AE0201300310AC0CAB0CFF3E031DBA29CA
:101380000130B002031DAB292E08AC002D08AB00C4
:1013900008004308C5004208C4000310C40DC50D71
:1013A0000310C40DC50D0310C40DC50D0310C40DED
:1013B000C50D4408B9004508BA00BB01BC010030A6
:1013C000C0003D30BF000930BE000030BD000A1231
:1013D0008A15A6250A128A153908FF3E831692003F
:1013E00007110F308312970012158C108C1CF629F0
:1013F0008C108C180800F929F40174087107840016
:1014000072080318720A8312FF000A128A1100255B
:101410000A128A15003A0319232A740871078400F6
:1014200072080318720AFF000A128A1100250A12B4
:101430008A150A168A117E270A128A150130F300CE
:101440007308F407FD290A300A168A117E270A124A
:101450008A150D300A168A117E2783128C12080015
:10146000BD013D083A0784003B0803183B0AFF0012
:101470000A128A1100250A128A15003A0319572AFE
:101480003D083A0784003B0803183B0AFF000A1294
:101490008A1100250A128A150A168A1186270A124D
:1014A0008A1501308312BC003C08BD07312A0A307E
:1014B0000A168A1186270A128A150D300A168A1111
:1014C000862783128C120800BB00BD01BE01BD013E
:1014D000BE01862A0A303C060319922A0D303C06CA
:1014E0000319922A3C08B9003D083B07BA003A08A4
:1014F00084003908831780000130BD070318BE0A35
:101500000030BE073D083E04031D922A0A168A11C8
:1015100068270A128A15B9003908BC008C123C08E9
:10152000031D6A2A3D083B07B90039088400831768
:101530008001080063308312C5004508BF000130F8
:101540000A128A159F200A128A156330C5004508C1
:10155000BF0080300A128A159F200A128A1583164E
:1015600020088312C100831621088312C2000A12C8
:101570008A15E3200A128A156330C5004508BF00AA
:10158000C0300A128A159F200A128A158316220873
:101590008312C100831623088312C2000A128A151F
:1015A000E32008008312C200DC2A0130DA2A093065
:1015B000DA2A11309F00E72A4208003A0319D52A97
:1015C000013A0319D72A033A0319D92AE72A1F1522
:1015D0001F19E82A83161E088312BB000630031069
:1015E000BB0CFF3E031DEF2A3B08BC00BD011E08DB
:1015F000BE00BF010310BE0DBF0D0310BE0DBF0D19
:101600003C083E04C0003D083F04C1004008B9004A
:101610004108BA0008008312BD008711BE013D08D1
:10162000BB003E08073C013E172B0310BB0CFF3EDE
:10163000031D152B3B080139BC00BC0E07083C06F6
:10164000EF393C06870087150A168A11D3270A123C
:101650008A158312031387110130BB003B08BE07B4
:1016600008303E02031C0F2B07160A168A11D327D7
:101670000A128A158312031387150A168A11D327B3
:101680008312031387110800F501F6017008710435
:1016900003197B2BF701F70AF11B5A2B01300310BA
:1016A000F00DF10DFF3E031D4F2B0130F4007408C7
:1016B000F7074C2B01300310F50DF60DFF3E031D0F
:1016C0005B2B71087302031D672B70087202031CE9
:1016D000702B7008F2027108031CF303F3027514F7
:1016E00001300310F10CF00CFF3E031D712B013093
:1016F000F702031D5A2B7608F1007508F000080068
:10170000A901AA01240825040319B92BA801A80AD4
:10171000A51B982B01300310A40DA50DFF3E031D42
:101720008B2B01308312C50045088316A807882B30
:1017300001300310A90DAA0DFF3E031D992B2508AA
:101740002702031DA52B24082602031CAE2B240808
:10175000A6022508031CA703A702291401300310C1
:10176000A50CA40CFF3E031DAF2B0130A802031DE6
:10177000982B2A08A5002908A40008000030C500FD
:101780000030C4000030C3000030C200391CDC2B24
:101790003D08C2073E0803110318013E031DC3079D
:1017A0003F0803110318013E031DC407400803113D
:1017B0000318013E031DC5070130C1000310BD0D14
:1017C000BE0DBF0DC00DC10BDE2B01300310BC0CD4
:1017D000BB0CBA0CB90CFF3E031DE62B3C083B04C6
:1017E0003A043904031DC62B4508BC004408BB005D
:1017F0004308BA004208B9000800BD00BE018711C5
:101800008316071683120716BF0187150A168A1159
:10181000D3270A128A1583120313070E0139BB005E
:101820003F08073C013E162C0310BB0DFF3E031D75
:10183000142C3B08BC003C08BE0487110130BB00DF
:101840003B08BF0708303F02031C052C8316071214
:1018500083123D0803192E2C07122F2C07160A1687
:101860008A11D3270A128A158312031387150A16C1
:101870008A11D3278312031387113E0808004108F9
:101880000139C2004208C5004008C2004208C40035
:101890000A168A11C4270A128A15831203134508EF
:1018A0000319542CA230552CA0300A128A150B2390
:1018B0000A128A1544080A128A150B230A128A157D
:1018C0000A168A11C4270A128A15831203134508BF
:1018D00003196C2CA3306D2CA1300A128A150B232E
:1018E0000A128A1501300A128A15FD230A128A1576
:1018F000C2004208C3000A168A11B62783120313D6
:10190000430808002208A300A4012308A800240813
:10191000A90021080139A3002308A5002008A3007D
:101920002308A600A7010A168A11C4270A128A15DD
:1019300083160313250803199F2CA230A02CA03076
:101940000A128A150B230A128A15831626080A1210
:101950008A150B230A128A15831628080A128A157B
:101960000B230A128A150A168A11B6270A128A153B
:10197000013083160313A3002308A707210883124D
:10198000C100831620088312C0000A128A153F2462
:101990000A128A158316A300A40129082406031D30
:1019A000D32C28082306031908000A30270203183D
:1019B0000800932C0030AC000030AB000030AA00CF
:1019C0000030A900230822042104200403192F2D2C
:1019D000AD01AD0AA31BFA2C0130A8000310A00D25
:1019E000A10DA20DA30DA80BEE2C0130A800280814
:1019F000AD07EA2C0130A8000310A90DAA0DAB0D0C
:101A0000AC0DA80BFC2C23082702031D112D220866
:101A10002602031D112D21082502031D112D20086A
:101A20002402031C222D2008A4022108031C210FDC
:101A3000A5022208031C220FA6022308031C230F61
:101A4000A702291401300310A30CA20CA10CA00CB6
:101A5000FF3E031D232D0130AD02031DFA2C2C087F
:101A6000A3002B08A2002A08A1002908A000080052
:101A70008312891009111430B9000030BA000A121B
:101A80008A157E200A128A1589146330C100410824
:101A9000BF0038300A128A159F200A128A150530B5
:101AA000B9000030BA000A128A157E200A128A157F
:101AB0006330C1004108BF0038300A128A159F20E8
:101AC0000A128A150130B9000030BA000A128A15CC
:101AD0007E200A128A156330C1004108BF003830E9
:101AE0000A128A159F200A128A156330C100410824
:101AF000BF0008300A128A159F200A128A15633027
:101B0000C1004108BF000F300A128A159F200A1237
:101B10008A156330C1004108BF0001300A128A15DE
:101B20009F200A128A156330C1004108BF00383077
:101B30000A128A159F200A128A156330C1004108D3
:101B4000BF0080300A128A159F2008008316A10169
:101B50008312BC1FB92DB909BA09BB09BC09B90A5E
:101B60000319BA0A0319BB0A0319BC0A8316A10197
:101B7000A10A8312C01FCC2DBD09BE09BF09C0092F
:101B8000BD0A0319BE0A0319BF0A0319C00A0130AE
:101B9000C10041088316A10600308316A50000305D
:101BA000A4000030A3000030A20083123C083B04D4
:101BB0003A04390403192C2E8316A001A00A8312BB
:101BC000BC1BF12D0130C1000310B90DBA0DBB0DC6
:101BD000BC0DC10BE42D0130C10041088316A007E4
:101BE000DF2D01308312C10003108316A20DA30D57
:101BF000A40DA50D8312C10BF42D3C084002031D5A
:101C00000B2E3B083F02031D0B2E3A083E02031D1C
:101C10000B2E39083D02031C1D2E3908BD023A085F
:101C2000031C3A0FBE023B08031C3B0FBF023C08DB
:101C3000031C3C0FC00283162214013003108312D0
:101C4000BC0CBB0CBA0CB90CFF3E031D1E2E0130A0
:101C50008316A002031DF12D8316210803193B2EC4
:101C6000A209A309A409A509A20A0319A30A031931
:101C7000A40A0319A50A25088312BC0083162408A8
:101C80008312BB00831623088312BA00831622082E
:101C90008312B900080083120313881108158814F1
:101CA0000814B901BA01013083120313B9070318EC
:101CB000BA0A0030BA073A08803AFF0080307F0243
:101CC000031D642E05303902031C532E83120313A7
:101CD000061C88196F2E061C6B2E31300800861CDE
:101CE0008819762E861C722E32300800061D88193F
:101CF0007D2E061D792E33300800881508118814B2
:101D00000814BB01BC01013083120313BB07031885
:101D1000BC0A0030BC073C08803AFF0080307F02DC
:101D2000031D942E05303B02031C832E83120313E4
:101D3000061C08199F2E061C9B2E34300800861C9A
:101D40000819A62E861CA22E35300800061D08197B
:101D5000AD2E061DA92E36300800881508158810EE
:101D60000814BD01BE01013083120313BD0703181F
:101D7000BE0A0030BE073E08803AFF0080307F0276
:101D8000031DC42E05303D02031CB32E8312031322
:101D9000061C8818CF2E061CCB2E37300800861C58
:101DA0008818D62E861CD22E38300800061D8818BA
:101DB000DD2E061DD92E3930080088150815881427
:101DC0000810BF01C001013083120313BF070318BD
:101DD000C00A0030C0074008803AFF0080307F0210
:101DE000031DF42E05303F02031CE32E8312031360
:101DF000061C0818FF2E061CFB2E2A300800861C25
:101E00000818062F861C022F30300800061D0818FF
:101E10000D2F061D092F23300800783008002430CC
:101E2000AA002A08AD002308AB002208AA00A20AD3
:101E30000319A30A2B08FF002A0884000A128A113A
:101E400000250A128A15AC002C08B20032080319CA
:101E5000F92F2530320603193D2F3208AA00200839
:101E600084008317211C83132A0880000130A007F7
:101E70000318A10A0030A107132FAE012308AB00FD
:101E80002208AA00A20A0319A30A2B08FF002A08A5
:101E900084000A128A1100250A128A15B200003A3B
:101EA0000319F92F643A0319592F0D3A0319592FC1
:101EB000132F2D08840083130008B000840A000843
:101EC000B1000230AA002A08AD07B11F702F0330FD
:101ED000AA002A08AE04B009B109B00A0319B10A70
:101EE000B201B20A0530320603199B2F3208AA004C
:101EF0002A07123E840085300318013EFF000A12B3
:101F00008A1100250A128A15AB000A128A110025CF
:101F10000A128A15AC002C083102031D912F2B08E0
:101F20003002031C9B2F0130AA002A08B20705309B
:101F30003206031D762F2E0803390319AE2F2D30DC
:101F4000AA00200884008317211C83132A0880001C
:101F50000130A0070318A10A0030A1073208AA0027
:101F60002A08AF00FF30AA002A08AF072F0A03197A
:101F7000132F0A30F8000030F9002F08AA002A07B2
:101F8000123E840085300318013EFF000A128A11B8
:101F900000250A128A15F0000A128A1100250A1279
:101FA0008A15F1003108F3003008F2000A128A1590
:101FB00044230A128A157108FB007008FA000A12FD
:101FC0008A1565210A128A157808303EAB002B0865
:101FD000B2003208AA00200884008317211C831352
:101FE0002A0880000130A0070318A10A0030A107C9
:101FF000B22F200884008317211C8313800108005E
:102ECA00FF34FF3401348C1E682F1A08080030348E
:102EDA00383436343234003441309F00023083169D
:102EEA009F0008008B178B1683160C140B170B16F2
:102EFA000800F000700883129900831698180800D9
:102F0A00822F8312B900390899008316981808008D
:102F1A008A2F64008001840A040603190034040617
:102F2A008F2F8316811281128111011581140114C8
:102F3A000B11080007148312901610169011101125
:102F4A0090141014080019309900871707131813E2
:102F5A0098161812181583129817181318168C1227
:102F6A000800871507120A168A11D3270A168A112A
:102F7A008312031307160A168A11D327080083122D
:102F8A00871507160A168A11D3270A168A11831279
:102F9A00031307120A168A11D3270800B901BA01C6
:102FAA00013083120313B9070318BA0A0030BA07AB
:102FBA003A08803AFF0080307F02031DE62F053071
:102FCA00390203180800D52F63308312C50045085B
:102FDA00BF0080300A128A159F200A168A118316AA
:102FEA0020088312C100831621088312C2000A1224
:062FFA008A15E320080027
:02400E003A3F37
:00000001FF
