:100000000A128A11FC2FFF1B0D2883137F188317F8
:100010000008840A0319FF0A080000308A00040857
:10002000840A82070034013400340A340034643412
:100030000034E8340334103427340D340A342034C7
:10004000503469346334733469346D346C346134DE
:1000500062340D340A3420345434653473347434C7
:1000600065342034533465347234693461346C340B
:100070002034543458340D340A3400344334613459
:1000800072347234653467346F34753420346534B7
:100090006D342034423431340034413444344334F8
:1000A0002034763461346C34753465343A34003439
:1000B000423465346D342034763469346E346434BB
:1000C0006F340034323430342034613420345334CB
:0C00D000413444340034253464340034DE
:10082600F00070088800080002309F0041308312F3
:100836009F000800831203138C1E1D2C1A08080043
:10084600F000700883129900831698180800272C68
:100856006730831699001813981618121815831204
:100866009817181318168C12831606158612080088
:10087600F301F40171087402031D432C700873021E
:1008860003180800F5010000000000000000000049
:100896000130F2007208F507C8307502031C462CB9
:1008A6000130F3070318F40A0030F4073D2CF30176
:1008B600F40171087402031D622C70087302031898
:1008C6000800F501000000000000000000000130F3
:1008D600F2007208F507C8307502031C652C01305A
:1008E600F3070318F40A0030F4075C2CF6008914A9
:1008F60076080A128A1113240A128A11091503307E
:10090600F0000030F1000A128A115A240A128A11E4
:100916008312031389100330F0000030F1000A122D
:100926008A115A248312031389140800A001A10115
:100936007A1CA32C7C08A0070318A10A7D08A1072E
:1009460001300310FC0DFD0DFF3E031DA42C0130EC
:100956000310FB0CFA0CFF3E031DAB2C7A087B043C
:10096600031D9B2C2108FB002008FA000800F60056
:1009760083120313891476080A128A1113240A12A1
:100986008A1109110330F0000030F1000A128A11B1
:100996005A240A128A118312031389100330F000B5
:1009A6000030F1000A128A115A24831203138914A3
:1009B6000800FA017A087707840078080318780A8D
:1009C600FF000A128A1103200A128A11003A03193B
:1009D60008007A087707840078080318780AFF0069
:1009E6000A128A1103200A128A110A128A1179241C
:1009F6000A128A110130F9007908FA07DD2CFD0088
:100A060001300A128A11BA240A128A1180300A1297
:100A16008A11BA240A128A117D08F7000030031DD4
:100A26008030F8000A128A11DC240A128A11C030BA
:100A36000A128A11BA240A128A117B08F7007C0866
:100A4600F8000A128A11DC240800F200F301730888
:100A5600720784000A128A110D200A128A11003ABE
:100A66000319472D7308720784000A128A110D2094
:100A76000A128A110A128A1123240A128A110130D3
:100A8600F1007108F3072A2D0A300A128A1123246D
:100A96000A128A110D300A128A11232483128C122B
:100AA60008002A082B040319812DAF01AF0AAB1BDE
:100AB600682D01300310AA0DAB0DFF3E031D5D2D01
:100AC6000130AE002E08AF075A2D2B082D02031D4C
:100AD6006E2D2A082C02031C762D2A08AC022B0840
:100AE600031CAD03AD0201300310AB0CAA0CFF3E94
:100AF600031D772D0130AF02031D682D2D08AB00B5
:100B06002C08AA000800F9008F2D01308D2D093020
:100B16008D2D11309F009A2D7908003A0319882DE2
:100B2600013A03198A2D033A03198C2D9A2D1F15A4
:100B36001F199B2D83161E08F20006300310F20CB7
:100B4600FF3E031DA12D7208F300F40183121E0857
:100B5600F500F6010310F50DF60D0310F50DF60D73
:100B660073087504F70074087604F8007708F00037
:100B76007808F1000800A701A80122082304031938
:100B8600F52DA901A90AA31BD42D01300310A20D2E
:100B9600A30DFF3E031DC92D0130A6002608A90797
:100BA600C62D01300310A70DA80DFF3E031DD52D40
:100BB60023082502031DE12D22082402031CEA2D29
:100BC6002208A4022308031CA503A502271401304A
:100BD6000310A30CA20CFF3E031DEB2D0130A9024E
:100BE600031DD42D2808A3002708A2000800F5003D
:100BF600F601F701F601F701182E0A3078060319F7
:100C0600372E0D3078060319372E7808F20076084D
:100C16007507F3007308840072088313800001309F
:100C2600F6070318F70A0030F7077008FF3EF200D0
:100C360071080318013EFF3EF3007708803AF4007E
:100C46007308803A7402031D2A2E7208760203186E
:100C5600372E0A128A111D240A128A11F20072080E
:100C6600F8007808031D002E76087507F200720A50
:100C7600840083138001080083128910091114303F
:100C8600F0000030F1000A128A115A240A128A1161
:100C960083120313891438300A128A11BA240A12ED
:100CA6008A110530F0000030F1000A128A115A2428
:100CB6000A128A1138300A128A11BA240A128A11C3
:100CC6000130F0000030F1000A128A115A240A128B
:100CD6008A1138300A128A11BA240A128A11083087
:100CE6000A128A11BA240A128A110F300A128A11BC
:100CF600BA240A128A1101300A128A11BA240A1277
:100D06008A1138300A128A11BA240A128A118030DE
:100D16000A128A11BA240800C330831685000330EC
:100D2600860081308700880189010A128A113F26D0
:100D36000A128A110A128A112B240A128A110A121D
:100D46008A1117240A128A1188015030FB0080305C
:100D5600FC0046300A128A1102250A128A118801FD
:100D660007308316850083128618B62E0B300A12BA
:100D76008A1128250A128A110630F0000030F10087
:100D860042300A128A11FA250A128A114230FB00F1
:100D96000030FC002C300A128A1102250A128A1130
:100DA600871402308800C830F0000030F1000A12C3
:100DB6008A113B240A128A11831203138801C83050
:100DC600F0000030F1000A128A113B240A128A113F
:100DD600831203138716CA30A2000030A300023024
:100DE6000A128A1186250A128A117108FB007008F8
:100DF600FA006430FC000030FD000A128A119924C2
:100E06000A128A117B08A5007A08A4000A128A1120
:100E1600BE250A128A112208BD003D08C8005930B5
:100E2600BD003D08B0004808BE00BF013E08B10045
:100E36003F08B20042300A128A1130270A128A117C
:100E46004230FB000030FC003B300A128A110225BA
:100E56000A128A11861CA82E2D2FBB003130B30032
:100E66003308B6000130B007FF30300784000A129D
:100E76008A110D200A128A11B3003308BC003C08FF
:100E86000319F72F25303C060319552F3C08B300EC
:100E96003B0884003308831380000130B300330815
:100EA600BB07352FB7010130B007FF30300784008C
:100EB6000A128A110D200A128A11BC00003A03197F
:100EC600F72F643A03196B2F0D3A03196B2F352F41
:100ED6003608840083130008B900840A0008BA00A3
:100EE6000230B3003308B607BA1F822F0330B300AF
:100EF6003308B704B909BA09B90A0319BA0ABC0111
:100F0600BC0A3C08B3003307013E84000A128A116A
:100F16000D200A128A11B4000A128A110D200A1233
:100F26008A11B50035083A02031D9B2F3408390291
:100F3600031CA52F0130B3003308BC0705303C065F
:100F4600031D842F370803390319B42F2D30B3003E
:100F56003B0884003308831380000130B300330854
:100F6600BB073C08B3003308B800FF30B3003308B2
:100F7600B807380A0319352F0A30AA000030AB002B
:100F86003808B3003307013E84000A128A110D2087
:100F96000A128A11A2000A128A110D200A128A1157
:100FA600A3003A08A5003908A4000A128A11BE2532
:100FB6000A128A112308AD002208AC000A128A110F
:100FC60054250A128A112A08303EB4003408BC009F
:100FD6003C08B3003B0884003308831380000130CB
:100FE600B3003308BB07B82F3B0884008313800186
:0A0FF600080083010A128A118F2EF1
:02400E003A3F37
:00000001FF
