:060000000A128A11122809
:10000800FE00030E83120313B1000408B2000A08AD
:10001800B3007F08B4000A128A152E2F0A128A111B
:10002800152883160A128A1553220A128A11E60025
:100038000A128A1554220A128A11E7000A128A152E
:1000480055220A128A11E8000A128A1556220A1243
:100058008A11E9000A128A1557220A128A11EA003F
:1000680083120A128A11FF250A128A11DA008317ED
:1000780090308400B8300A128A156E220A128A114A
:1000880083134B3084005A300A128A156E2283017A
:100098000A128A114F28C33083168500FF30860064
:1000A80080308700880189010A128A158E260A1273
:1000B8008A110A128A1595220A128A11D601D701C5
:1000C8001430D9000030DA002830DB000030DC00C2
:1000D8005030DD000030DE00C33084006608831332
:1000E8008000840A67088000840A68088000840AFF
:1000F80069088000840A6A088000D801831287147E
:100108000730831685000A128A15ED220A128A1111
:100118000A128A1558220A128A118830C40013302C
:10012800C5000A128A11E6260A128A110A128A15CD
:10013800A2220A128A110A128A1589220A128A111F
:100148008312DA01DA0A8716BA300A128A15DC2213
:100158000A128A115A080319AE288619C528831667
:1001680056085704031DC52803108312871E03145D
:10017800031CC228831203138716C528831203138E
:10018800871203108312861D0314003003180130F0
:100198008316BC00BD013C08D6003D08D700663078
:1001A8008312C5000030C60000300A128A150C25DB
:1001B8000A128A113608C0003508BF000A30C1008B
:1001C8000030C2000A128A1568230A128A114008F0
:1001D800C8003F08C7000A128A1544260A128A1165
:1001E80046088316E500831245088316E400643048
:1001F8008312C5000030C600831665088312C0004C
:10020800831664088312BF00FF30C1000030C200AB
:100218000A128A1568230A128A114008C8003F0882
:10022800C7000A128A1544260A128A11460883163C
:10023800D500831245088316D40054080A128A157B
:1002480093270A128A116630C5000030C6000130B3
:100258000A128A150C250A128A113608C0003508B8
:10026800BF000A30C1000030C2000A128A15682394
:100278000A128A114008C8003F08C7000A128A15E6
:1002880044260A128A1146088316E100831245089B
:100298008316E000CA308312C5000030C600023061
:1002A8000A128A150C250A128A113608C000350868
:1002B800BF006430C1000030C2000A128A156823EA
:1002C8000A128A114008C8003F08C7000A128A1596
:1002D80044260A128A1146088316E3008312450849
:1002E8008316E2004F30A8000030A9002530BC007A
:1002F8003C08AA006308AC006208AB006508AE00C1
:100308006408AD006108B0006008AF000A128A11E5
:100318001F230A128A11C830BC003C088312B5009A
:100328004F300A128A11D9250A128A113508360463
:100338000319DA29C8300A128A15FE220A128A110C
:1003480035088316BC00831236088316BD004F306B
:100358000A128A15FE220A128A11360883163D06E9
:10036800031DBA298312350883163C060319C829C8
:1003780001300A128A154B230A128A11BA300A125E
:100388008A15DC220A128A114F300A128A15CC22E9
:100398000A128A114F308316BC003C088312B5003C
:1003A800C8300A128A1515230A128A1183165A08A8
:1003B8006102031DE1295908600203184F2A6508E4
:1003C8005E02031DE92964085D0203184F2A6308C9
:1003D8005C02031DF12962085B0203184F2A83128D
:1003E80087108030880083165808031D4B2A9030E8
:1003F800A8000130A900A730BC003C08AA00630887
:10040800AC006208AB006508AE006408AD00610886
:10041800B0006008AF000A128A111F230A128A115D
:1004280090308312B6000130B7000A128A153624BC
:100438000A128A110130C0000030C1008316620818
:10044800BC003C088312C2000A128A15DC260A1274
:100458008A110230C0000030C10083166408BC0055
:100468003C088312C2000A128A15DC260A128A1175
:100478000330C0000030C10083166008BC003C088F
:100488008312C2000A128A15DC260A128A11831600
:10049800D801D80A522AD8018312871483128C1ED5
:1004A800142BDF300A128A159E240A128A118C1224
:1004B800052B01308312BA000030BB000A128A15DE
:1004C80001260A128A11FF3A0319B62A90308316B8
:1004D800A8000130A9000B30BC003C08AA0001307C
:1004E8008312BA000030BB000A128A1501260A12CC
:1004F8008A118316BD00BE013D08AB003E08AC0062
:1005080002308312BA000030BB000A128A15012695
:100518000A128A118316BF00C0013F08AD004008C7
:10052800AE0003308312BA000030BB000A128A15ED
:1005380001260A128A118316C100C2014108AF00C0
:100548004208B0000A128A111F230A128A11903039
:100558008312B6000130B7000A128A1536240A122F
:100568008A11142B2E30B6008030B7000A128A1573
:1005780036240A128A11142B0A30D9000030DA0006
:100588003230DB000030DC005A30DD000030DE00A5
:100598004D308312B6008030B7000A128A1536240F
:1005A8000A128A11142B1430D9000030DA002830CE
:1005B800DB000030DC005030DD000030DE006B3046
:1005C8008312B6008030B7000A128A1536240A1240
:1005D8008A11142B1E30D9000030DA001E30DB00DF
:1005E8000030DC004630DD000030DE008930831248
:1005F800B6008030B7000A128A1536240A128A110A
:10060800142B83165F08613A0319C02A033A0319A9
:10061800D72A013A0319EE2A0B3A03195D2A142B3B
:1006280014308312B5000030B6000A128A158923E7
:100638000A128A11AE28AB30B1003108B600013079
:100648008316AA07FF302A0784000A128A110A268D
:100658000A128A11B1003108BB003B080319432C68
:1006680025303B060319482B3B08B10028088400B5
:100678008317291C8313310880000130A807031849
:10068800A90A0030A907232BB4018F2B3608840050
:1006980083130008B7000030B8000130B1003108FA
:1006A800B60737083804031D5D2BD030B7008030FB
:1006B800B80038088312FF008316370884008312B5
:1006C8000A128A1100260A128A11003A0319232BEA
:1006D800831638088312FF008316370884008312B4
:1006E8000A128A1100260A128A118316B1002808F4
:1006F80084008317291C8313310880000130B70751
:100708000318B80A0030B8070130A8070318A90A67
:100718000030A9075D2B0130AA07FF302A078400A3
:100728000A128A110A260A128A11BB00003A031912
:10073800432C643A0319A72B0D3A0319A72B1A3A2D
:1007480003194A2B232B3608840083130008B900A9
:10075800840A0008BA000230B1003108B607BA1F8F
:10076800BE2B0330B1003108B404B909BA09B90A7B
:100778000319BA0ABB01BB0A3B08B1003107013EA5
:1007880084000A128A110A260A128A11B2000A1271
:100798008A110A260A128A11B30033083A02031D85
:1007A800D72B32083902031CE12B0130B100310884
:1007B800BB0705303B06031DC02B3408033903195A
:1007C800F42B2D30B100280884008317291C8313CB
:1007D800310880000130A8070318A90A0030A907CA
:1007E8003B08B1003108B500FF30B1003108B5074A
:1007F800350A0319232B0A30A3000030A40035085A
:10080800B1003107013E84000A128A110A260A1231
:100818008A118312C5000A128A110A260A128A113D
:10082800C60083163A088312C80083163908831253
:10083800C7000A128A1544260A128A114608831626
:10084800A600831245088316A5000A128A156A2491
:100858000A128A112308303EB2003208BB003B0856
:10086800B100280884008317291C831331088000ED
:100878000130A8070318A90A0030A907F82B28088F
:1008880084008317291C8313800108002330A400E7
:100898002408A9000130A207FF30220784000A12A9
:1008A8008A110A260A128A11A4002408AE002E080A
:1008B8000319612D25302E060319722C2E08A40069
:1008C800200884008317211C83132408800001302A
:1008D800A0070318A10A0030A1074E2CA701B12CCC
:1008E8002908840083130008AA000030AB000130F7
:1008F800A4002408A9072A082B04031D872CD0303C
:10090800AA008030AB002B08FF002A0884000A12D6
:100918008A1100260A128A11003A03194E2C2B0854
:10092800FF002A0884000A128A1100260A128A1176
:10093800A400200884008317211C83132408800046
:100948000130AA070318AB0A0030AB070130A00733
:100958000318A10A0030A107872C0130A207FF3035
:10096800220784000A128A110A260A128A11AE0086
:10097800003A0319612D643A0319C92C0D3A031979
:10098800C92C1A3A0319742C4E2C29088400831395
:100998000008AC00840A0008AD000230A400240856
:1009A800A907AD1FE02C0330A4002408A704AC0954
:1009B800AD09AC0A0319AD0AAE01AE0A05302E0620
:1009C8000319072D2E08A4002407013E84000A12EB
:1009D8008A110A260A128A11A5000A128A110A2601
:1009E8000A128A11A60026082D02031DFD2C2508CF
:1009F8002C02031C072D0130A4002408AE07053083
:100A08002E06031DE62C2708033903191A2D2D304D
:100A1800A400200884008317211C83132408800065
:100A28000130A0070318A10A0030A1072E08A4006E
:100A38002408A800FF30A4002408A807280A0319DE
:100A48004E2C0A30F8000030F9002808A4002407CA
:100A5800013E84000A128A110A260A128A11F0003D
:100A68000A128A110A260A128A11F1002D08F300C7
:100A78002C08F2000A128A1544250A128A117108F4
:100A8800FB007008FA000A128A15D0230A128A118C
:100A98007808303EA5002508AE002E08A4002008DE
:100AA80084008317211C8313240880000130A007C9
:100AB8000318A10A0030A1071E2D200884008317FF
:100AC800211C83138001080000308316A300003026
:100AD800A2000030A1000030A000831245084404A1
:100AE800430442040319C82D8316A401A40A8312DF
:100AF800C51B8D2D0130CA000310C20DC30DC40DD6
:100B0800C50DCA0B802D0130CA004A088316A407F8
:100B18007B2D01308312CA0003108316A00DA10D8E
:100B2800A20DA30D8312CA0B902D45084902031D7F
:100B3800A72D44084802031DA72D43084702031D9B
:100B4800A72D42084602031CB92D4208C6024308D5
:100B5800031C430FC7024408031C440FC80245087E
:100B6800031C450FC9028316201401300310831299
:100B7800C50CC40CC30CC20CFF3E031DBA2D0130BA
:100B88008316A402031D8D2D831623088312C50026
:100B9800831622088312C400831621088312C30017
:100BA800831620088312C2000800BB00E82D3B080A
:100BB800840000080319F92D0130B7003708BB0776
:100BC8000130B7003708B5073508840083130008DB
:100BD800B7003B0884000008B80037083802B9009D
:100BE8003908BA003A080319DB2D3A08B500B601EE
:100BF800B51BB60308000134FF1B0A2E83137F18A8
:100C080083170008840A0319FF0A080006308A00BF
:100C18000408840A82070034013400340A3400349A
:100C280064340034E8340334103427346C346134C9
:100C380073347434203472346534673469347334EB
:100C480074346534723465346434203465346D34F6
:100C580065347234673465346E34633479342034DF
:100C6800253464342F34253464342F3425346434E3
:100C7800003465346D3465347234673465346E34E9
:100C8800633469346534733420346E346F347434A7
:100C98002034723465346734693473347434653499
:100CA80072346534643420347934653474340034EF
:100CB80065346D3465347234673465346E34633446
:100CC800793420346334683461346E34673465347D
:100CD8006434203474346F3420346F347034743492
:100CE80069346F346E3420344134003465346D34E3
:100CF80065347234673465346E346334793420343F
:100D08006334683461346E34673465346434203451
:100D180074346F3420346F347034743469346F34FD
:100D28006E3420344234003465346D3465347234A2
:100D3800673465346E34633479342034633468340A
:100D480061346E34673465346434203474346F34F9
:100D580020346F347034743469346F346E34203412
:100D68004334003465346D34653472346734653423
:100D78006E34633479342D34253464342F34253477
:100D880064342F34253464340034543465346D3479
:100D980070342F34573469346E3464342F34483403
:100DA80075346D34003431346D3469346E342D3417
:100DB80025347334003428346E3475346C346C3410
:100DC80029340034970183160715881683120711F2
:100DD8008812950112114408C6004508C700C801C9
:100DE800C90102300310C60DC70DC80DC90DFF3E5D
:100DF800031DF62E4908B8004808B7004708B60092
:100E08004608B5000030BC003D30BB000930BA00D0
:100E18000030B9000A128A1173270A128A1136089B
:100E28008316A100831235088316A0000130210221
:100E38000030031920020318272FFC308312920573
:100E4800831620086E2F21088312C70083162008F6
:100E58008312C6000310C70CC60C0310C70CC60CBF
:100E6800013047020030031946020318542F1208B4
:100E7800FC390138920083162008023E8312C6000E
:100E8800831621080318013E003E8312C700031091
:100E9800C70CC60C0310C70CC60C460883166E2F69
:100EA80083162008083E8312C600831621080318FB
:100EB800013E003E8312C70004300310C70CC60C65
:100EC800FF3E031D612F4608831692008312120805
:100ED800FC39023892008730831292050800BF015E
:100EE800B81F832FB509B609B709B809B50A031998
:100EF800B60A0319B70A0319B80ABF01BF0ABC1F0B
:100F0800942FB909BA09BB09BC09B90A0319BA0A65
:100F18000319BB0A0319BC0A0130BD003D08BF060E
:100F28000030C3000030C2000030C1000030C000F3
:100F380038083704360435040319E92FBE01BE0A00
:100F4800B81BB42F0130BD000310B50DB60DB70D99
:100F5800B80DBD0BA82F0130BD003D08BE07A42F5A
:100F68000130BD000310C00DC10DC20DC30DBD0B76
:100F7800B62F38083C02031DCB2F37083B02031D50
:100F8800CB2F36083A02031DCB2F35083902031C34
:100F9800DC2F3508B9023608031C360FBA023708A9
:100FA800031C370FBB023808031C380FBC0240145F
:100FB80001300310B80CB70CB60CB50CFF3E031D7E
:100FC800DD2F0130BE02031DB42F3F080319F72F90
:100FD800C009C109C209C309C00A0319C10A031912
:100FE800C20A0319C30A4308B8004208B7004108F7
:080FF800B6004008B500080036
:10149E00B50035088800080030343834363432341C
:1014AE00003402309F00413083129F000800F0008C
:1014BE00700883129900831698180800622A831206
:1014CE00B500350899008316981808006A2A64003A
:1014DE008001840A04060319003404066F2A0000F2
:1014EE0000000000000000000000000000000800E6
:1014FE001819832A981C852A181218168C1E852AEC
:10150E001A08080031309000CF308F002C308E003A
:10151E008B1783160C140B170B1608008801860107
:10152E00831688010F3086007F308312B500350890
:10153E008316810508008316071188120F30831257
:10154E00970012158C108C1CAA2A8C108C1808006F
:10155E00AD2A871507160A128A1576220A128A15DF
:10156E008312031307120A128A15762208008715B2
:10157E0007120A128A1576220A128A15831203138B
:10158E0007160A128A15762208008312C000C03090
:10159E000A128A154B230A128A154008BC00003025
:1015AE00BD000A128A15AA230800C00080300A1254
:1015BE008A154B230A128A154008BC000030031D01
:1015CE008030BD000A128A15AA2308000C3099003B
:1015DE008030870018139816181218158312981752
:1015EE00181318168C128316871707130800831208
:1015FE00B9003908B7003708B80038088400000869
:10160E0003190E2B0130B7003708B807042B390821
:10161E003802B500B601B51BB6030800B70037088F
:10162E00B6003608B8003508840083130008B600EB
:10163E0038088400360880000008031908000130BD
:10164E00B6003608B8070130B6003608B5071A2BB3
:10165E00BB0089143B080A128A154F220A128A15FA
:10166E0009150330B5000030B6000A128A15892319
:10167E000A128A1589100330B5000030B6000A121E
:10168E008A158923891408008312BB0089143B082C
:10169E000A128A154F220A128A1509110330B50053
:1016AE000030B6000A128A1589230A128A1589108B
:1016BE000330B5000030B6000A128A15892389144A
:1016CE000800C301C4013F1C722B4108C307031855
:1016DE00C40A4208C40701300310C10DC20DFF3EFB
:1016EE00031D732B01300310C00CBF0CFF3E031DF6
:1016FE007A2B3F084004031D6A2B4408C0004308A0
:10170E00BF000800B801B90136083902031D912B3C
:10171E003508380203180800BA0100000000000066
:10172E0000000000013083120313B7003708BA0718
:10173E00C8303A02031C942B0130B8070318B90ABB
:10174E000030B9078B2BBF013F083C0784003D08D2
:10175E0003183D0AFF000A128A1100260A128A1582
:10176E00003A031908003F083C0784003D0803189F
:10177E003D0AFF000A128A1100260A128A150A1261
:10178E008A152F230A128A150130BE003E08BF07A4
:10179E00AB2B780879040319FD2BFD01FD0AF91B0B
:1017AE00E42B01300310F80DF90DFF3E031DD92B6C
:1017BE000130FC007C08FD07D62B79087B02031D47
:1017CE00EA2B78087A02031CF22B7808FA027908C1
:1017DE00031CFB03FB0201300310F90CF80CFF3E57
:1017EE00031DF32B0130FD02031DE42B7B08F900D2
:1017FE007A08F8000800F401740871078400720872
:10180E000318720A8312FF000A128A1100260A12A6
:10181E008A15003A0319292C74087107840072087E
:10182E000318720AFF000A128A1100260A128A157C
:10183E000A128A155E220A128A150130F300730805
:10184E00F407032C0A300A128A155E220A128A1530
:10185E000D300A128A155E2283128C120800B9010D
:10186E0039083607840037080318370AFF000A12B2
:10187E008A1100260A128A15003A03195D2C3908BE
:10188E003607840037080318370AFF000A128A1138
:10189E0000260A128A150A128A1566220A128A155B
:1018AE0001308312B8003808B907372C0A300A12F3
:1018BE008A1566220A128A150D300A128A156622B8
:1018CE0083128C120800230824040319992CA701F3
:1018DE00A70AA41B802C01300310A30DA40DFF3EFC
:1018EE00031D732C01308312CA004A088316A70702
:1018FE00702C24082602031D862C23082502031CA7
:10190E008E2C2308A5022408031CA603A602013070
:10191E000310A40CA30CFF3E031D8F2C0130A70255
:10192E00031D802C2608A4002508A3000800B7007C
:10193E00B801B901B801B901C02C0A303A06031931
:10194E00CC2C0D303A060319CC2C3A08B5003808C9
:10195E003707B6003608840035088313800001303F
:10196E00B8070318B90A0030B90738083904031D3F
:10197E00CC2C0A128A157F220A128A15B500350858
:10198E00BA008C123A08031DA42C38083707B5008C
:10199E0035088400831380010800B7008711B80151
:1019AE003708B5003808073C013EDF2C0310B50C94
:1019BE00FF3E031DDD2C35080139B600B60E0708B3
:1019CE003606EF393606870087150A128A157622F3
:1019DE000A128A158312031387110130B5003508D8
:1019EE00B80708303802031CD72C07160A128A15BE
:1019FE0076220A128A158312031387150A128A1584
:101A0E0076228312031387110800BE00152D0130B4
:101A1E00132D0930132D11309F00202D3E08003A52
:101A2E0003190E2D013A0319102D033A0319122D25
:101A3E00202D1F151F19212D83161E088312B70086
:101A4E0006300310B70CFF3E031D282D3708B800D3
:101A5E00B9011E08BA00BB010310BA0DBB0D03106D
:101A6E00BA0DBB0D38083A04BC0039083B04BD0062
:101A7E003C08B5003D08B6000800F501F6017008F7
:101A8E00710403197B2DF701F70AF11B5A2D013052
:101A9E000310F00DF10DFF3E031D4F2D0130F4002C
:101AAE007408F7074C2D01300310F50DF60DFF3EAF
:101ABE00031D5B2D71087302031D672D70087202E2
:101ACE00031C702D7008F2027108031CF303F3025D
:101ADE00751401300310F10CF00CFF3E031D712D37
:101AEE000130F702031D5A2D7608F1007508F0003B
:101AFE0008000030C1000030C0000030BF000030D0
:101B0E00BE00351C9E2D3908BE073A080311031876
:101B1E00013E031DBF073B0803110318013E031DC1
:101B2E00C0073C0803110318013E031DC107013015
:101B3E00BD000310B90DBA0DBB0DBC0DBD0BA02D14
:101B4E0001300310B80CB70CB60CB50CFF3E031DDC
:101B5E00A82D3808370436043504031D882D410896
:101B6E00B8004008B7003F08B6003E08B5000800B0
:101B7E00B700B80187118316071683120716B9012D
:101B8E0087150A128A1576220A128A1583120313F2
:101B9E00070E0139B5003908073C013ED82D031058
:101BAE00B50DFF3E031DD62D3508B6003608B80418
:101BBE0087110130B5003508B90708303902031C0A
:101BCE00C72D83160712831237080319F02D07123B
:101BDE00F12D07160A128A1576220A128A15831219
:101BEE00031387150A128A1576228312031387119F
:101BFE00380808003B080139BC003C08BF003A0811
:101C0E00BC003C08BE000A128A15B0220A128A15C0
:101C1E00831203133F080319162EA230172EA0307D
:101C2E000A128A15D4240A128A153E080A128A1537
:101C3E00D4240A128A150A128A15B0220A128A159B
:101C4E00831203133F0803192E2EA3302F2EA1301B
:101C5E000A128A15D4240A128A1501300A128A151C
:101C6E00BF250A128A15BC003C08BD000A128A154F
:101C7E00BE22831203133D0808008316A101A201A0
:101C8E008312450846040319852E8316A001A00A67
:101C9E008312C61B5F2E01300310C50DC60DFF3E0D
:101CAE00031D532E0130C90049088316A0074F2E7D
:101CBE00013083160310A10DA20DFF3E031D612EF0
:101CCE00831246084802031D6E2E45084702031C68
:101CDE00782E4508C7024608031CC803C80283169F
:101CEE002114013083120310C60CC50CFF3E031DD8
:101CFE007A2E01308316A002031D5F2E8316220852
:101D0E008312C600831621088312C50008008312B1
:101D1E00891009111430B5000030B6000A128A1568
:101D2E0089230A128A15891438300A128A154B2310
:101D3E000A128A150530B5000030B6000A128A154F
:101D4E0089230A128A1538300A128A154B230A1271
:101D5E008A150130B5000030B6000A128A158923A3
:101D6E000A128A1538300A128A154B230A128A155E
:101D7E0008300A128A154B230A128A150F300A12DE
:101D8E008A154B230A128A1501300A128A154B2323
:101D9E000A128A1538300A128A154B230A128A152E
:101DAE0080300A128A154B2308004208C300C40172
:101DBE004308C8004408C90041080139C30043085C
:101DCE00C5004008C3004308C600C7010A128A15A1
:101DDE00B0220A128A158312031345080319F92E2D
:101DEE00A230FA2EA0300A128A15D4240A128A15AD
:101DFE0046080A128A15D4240A128A1548080A12AD
:101E0E008A15D4240A128A150A128A15BE220A12BB
:101E1E008A15013083120313C3004308C707410814
:101E2E00BB004008BA000A128A1501260A128A154A
:101E3E00C300C40149084406031D272F4808430662
:101E4E00031908000A30470203180800ED2E0C1C77
:101E5E006A2F0C10CF308F002C308E000A304D06BA
:101E6E004E04031D642F0130CB070318CC0A00303B
:101E7E00CC07CD01CE0133304B064C04031D6A2F27
:101E8E009030A0000130A100C830AF002F08A20092
:101E9E004F30B0003008A3000A128A114A240A12E9
:101EAE008A159030F1000130F2000A128A150224D0
:101EBE000A128A15CB01CC016A2F0130CD07031807
:101ECE00CE0A0030CE078B1C882F8B105A080319B0
:101EDE007A2F87128714071197019001CB01CC013D
:101EEE00CD01CE017F2F87160F3097003130900035
:101EFE005A08031D842F0130852F0030AF002F08A4
:101F0E00DA003408FF0033088A0032088400310EEC
:101F1E008300FE0E7E0E0900AB0000308312C5005A
:101F2E000030C4000030C300FF30C20083162B08FF
:101F3E00A500A601A701A80128088312B8008316E0
:101F4E0027088312B700831626088312B60083165D
:101F5E0025088312B50083161208A900AA010310E2
:101F6E00A90DAA0D0310A90DAA0D03302904831281
:101F7E00B900003083162A048312BA00BB01BA1BC3
:101F8E00BB033B08BC000A128A1580250A128A156B
:101F9E003808C9003708C8003608C7003508C6001B
:101FAE000A128A1168250A128A1543088316AD0093
:101FBE00831242088316AC002D08A6002C08A5003B
:101FCE000310A60CA50C0310A60CA50C2508831255
:101FDE00950083162C080339A50003300310A50DB8
:101FEE00FF3E031DF52F0310250D0F3883129700AA
:021FFE000800D9
:02400E003A3F37
:00000001FF
