:060000000A128A110E280D
:10000800FE00030EF5000408F6000A08F7000A12BD
:100018008A11DC2E0A128A11112883160A128A15EF
:10002800D3240A128A11EA000A128A15D4240A1261
:100038008A11EB000A128A15D5240A128A11EC00DB
:100048000A128A15D6240A128A11ED000A128A1594
:10005800D7240A128A11EE000A128A11FF270A12FF
:100068008A11FC008313DA308400EA300A128A15F8
:10007800EF24F801F901FA01FB0183010A128A1140
:100088004528C33083168500FF30860080308700FE
:10009800880189010A128A112C270A128A110A1268
:1000A8008A1518250A128A11CE01CF01C0308400A2
:1000B8006A0883138000840A6B088000840A6C082D
:1000C8008000840A6D088000840A6E088000D001D0
:1000D800D1018312871401300A128A1596250A1253
:1000E8008A112F300A128A155D250A128A11831681
:1000F8005008031DE52856308312AB008030AC0051
:100108000A128A154F250A128A11C5300A128A1551
:1001180096250A128A118316D601D7010A128A1562
:100128006E250A128A11CF0083165608C73E84002E
:1001380083124F088313800083165608C73E840035
:1001480000080A128A15B2250A128A11013083168C
:10015800D6070318D70A0030D7075708803AFF0098
:1001680080307F02031DBA2804305602031C9228EF
:10017800C03083120313CF004F08A000C7300A1203
:100188008A1537260A128A1120082104031DD2284D
:100198008316D001D00A1E308312D3280B30AB004F
:1001A8008030AC000A128A154F250A128A11643071
:1001B800A0000030A1000A128A15F0250A128A113F
:1001C8007B28073085000A128A150C250A128A1125
:1001D8000A128A15D8240A128A118830AF001330FF
:1001E800B0000A128A11E7240A128A110A128A1523
:1001F80025250A128A110A128A1500250A128A115F
:10020800FC01FC0A831287163F300A128A155D2505
:100218000A128A117C0803190E29861925298316C2
:100228004E084F04031D252903108312871E03144B
:10023800031C22298312031387162529831203130B
:10024800871203108312861D03140030031801302F
:10025800CF00D0014F088316CE00831250088316B2
:10026800CF0066308312B0000030B10000300A12AF
:100278008A154D270A128A112108AB002008AA0006
:100288000A30AC000030AD000A128A15CF250A12D8
:100298008A112B08B3002A08B2000A128A1585278A
:1002A8000A128A1131088316D9008312300883167E
:1002B800D80064308312B0000030B10083165908AA
:1002C8008312AB00831658088312AA00FF30AC00D3
:1002D8000030AD000A128A15CF250A128A112B08A0
:1002E800B3002A08B2000A128A1585270A128A1151
:1002F80031088316CD00831230088316CC004C08D1
:100308000A128A112D260A128A116630B0000030AE
:10031800B10001300A128A154D270A128A112108E4
:10032800AB002008AA000A30AC000030AD000A1269
:100338008A15CF250A128A112B08B3002A08B200A1
:100348000A128A1585270A128A1131088316D300E2
:10035800831230088316D200CA308312B0000030EE
:10036800B10002300A128A154D270A128A11210893
:10037800AB002008AA006430AC000030AD000A12BF
:100388008A15CF250A128A112B08B3002A08B20051
:100398000A128A1585270A128A1131088316D50090
:1003A800831230088316D4004D308312CF004F08D3
:1003B800BE00831655088312C000831654088312A2
:1003C800BF00831659088312C20083165808831287
:1003D800C100831653088312C4008316520883127F
:1003E800C300DA300A128A11CA220A128A11A0300E
:1003F800CF004F08A000DA300A128A1537260A12F1
:100408008A11200821040319442AA0300A128A15E7
:1004180080250A128A112008CF002108D000DA307E
:100428000A128A1580250A128A1121085006031D0E
:100438001F2A20084F0603192D2A01300A128A158F
:1004480096250A128A113F300A128A155D250A126A
:100458008A11DA30AB000030AC000A128A154F2539
:100468000A128A11DA30CF004F08A0001030A1001C
:100478000030A200A0300A128A15E0260A128A115A
:100488000030831653021430031952020318BC2A91
:1004980000305902513003195802031CBC2A00309D
:1004A8005502293003195402031CBC2A83128710F1
:1004B8008030880083165108031DB82A4C308312F7
:1004C800CF004F08BE00831655088312C00083165C
:1004D80054088312BF00831659088312C20083167A
:1004E80058088312C100831653088312C400831668
:1004F80052088312C300B0300A128A11CA220A12A3
:100508008A11B0300A128A1585260A128A1101301A
:10051800AB000030AC00831658088312CF004F0898
:10052800AD000A128A118A260A128A110230AB001B
:100538000030AC00831652088312CF004F08AD007C
:100548000A128A118A260A128A110330AB00003077
:10055800AC00831654088312CF004F08AD000A126E
:100568008A118A260A128A118316D101D10ABF2A52
:10057800D1018312871414308312A0000030A10027
:100588000A128A15F0250A128A110E29CD003F3069
:10059800C5004508C8000130BE07FF303E0784008B
:1005A8000A128A116E250A128A11C5004508CE0062
:1005B8004E080319912B25304E060319EF2A4E08D1
:1005C800C5004D0884004508831380000130C5002C
:1005D8004508CD07CF2AC9010130BE07FF303E07C5
:1005E80084000A128A116E250A128A11CE00003A76
:1005F8000319912B643A0319052B0D3A0319052B9E
:10060800CF2A4808840083130008CB00840A000816
:10061800CC000230C5004508C807CC1F1C2B03308E
:10062800C5004508C904CB09CC09CB0A0319CC0A73
:10063800CE01CE0A4E08C5004507013E84000A12C5
:100648008A116E250A128A11C6000A128A116E25AD
:100658000A128A11C70047084C02031D352B4608A9
:100668004B02031C3F2B0130C5004508CE0705305F
:100678004E06031D1E2B4908033903194E2B2D3036
:10068800C5004D0884004508831380000130C5006B
:100698004508CD074E08C5004508CA00FF30C5000B
:1006A8004508CA074A0A0319CF2A0A30B800003099
:1006B800B9004A08C5004507013E84000A128A119C
:1006C8006E250A128A11B0000A128A116E250A12C2
:1006D8008A11B1004C08B3004B08B2000A128A15FF
:1006E80085270A128A113108BB003008BA000A129D
:1006F8008A15AE260A128A113808303EC600460806
:10070800CE004E08C5004D088400450883138000BC
:100718000130C5004508CD07522B4D0884008313CE
:10072800800108008312031308108814081588151F
:10073800A001A101013083120313A0070318A10A25
:100748000030A1072108803AFF0080307F02031D96
:10075800AF2B05302002031C9E2B83120313061CAB
:100768000818BA2B061CB62B2A300800861C081855
:10077800C12B861CBD2B30300800061D0818C82B5D
:10078800061DC42B23300800081488100815881586
:10079800A201A301013083120313A2070318A30ABD
:1007A8000030A3072308803AFF0080307F02031D32
:1007B800DF2B05302202031CCE2B83120313061CE9
:1007C8008818EA2B061CE62B37300800861C881888
:1007D800F12B861CED2B38300800061D8818F82BE5
:1007E800061DF42B393008000814881408118815E0
:1007F800A401A501013083120313A4070318A50A55
:100808000030A5072508803AFF0080307F02031DCD
:100818000F2C05302402031CFE2B83120313061C25
:1008280008191A2C061C162C34300800861C0819C6
:10083800212C861C1D2C35300800061D0819282C73
:10084800061D242C36300800081488140815881151
:10085800A601A701013083120313A6070318A70AEC
:100868000030A7072708803AFF0080307F02031D69
:100878003F2C05302602031C2E2C83120313061C62
:1008880088194A2C061C462C31300800861C881909
:10089800512C861C4D2C32300800061D8819582C06
:1008A800061D542C3330080078300800AA01A31F15
:1008B8006A2CA009A109A209A309A00A0319A10A7F
:1008C8000319A20A0319A30AAA01AA0AA71F7B2CC3
:1008D800A409A509A609A709A40A0319A50A0319C1
:1008E800A60A0319A70A0130A8002808AA0600309A
:1008F800AE000030AD000030AC000030AB00230883
:100908002204210420040319D02CA901A90AA31B3D
:100918009B2C0130A8000310A00DA10DA20DA30D62
:10092800A80B8F2C0130A8002808A9078B2C0130B0
:10093800A8000310AB0DAC0DAD0DAE0DA80B9D2C92
:1009480023082702031DB22C22082602031DB22CFD
:1009580021082502031DB22C20082402031CC32CE5
:100968002008A4022108031C210FA5022208031C49
:10097800220FA6022308031C230FA7022B14013001
:100988000310A30CA20CA10CA00CFF3E031DC42C49
:100998000130A902031D9B2C2A080319DE2CAB0980
:1009A800AC09AD09AE09AB0A0319AC0A0319AD0AC3
:1009B8000319AE0A2E08A3002D08A2002C08A100D6
:1009C8002B08A000080097018316071588168312C4
:1009D80007118812950112112F08B1003008B200D2
:1009E800B301B40102300310B10DB20DB30DB40D53
:1009F800FF3E031DF72C3408A3003308A200320879
:100A0800A1003108A0000030A7003D30A600093041
:100A1800A5000030A4000A128A115A240A128A1169
:100A28002108B6002008B50001303602003003194D
:100A380035020318232DFC3092053508472D36085A
:100A4800B2003508B1000310B20CB10C0310B20C9F
:100A5800B10C013032020030031931020318492D5C
:100A68001208FC39013892003508023EB1003608F8
:100A78000318013E003EB2000310B20CB10C031083
:100A8800B20CB10C310883165F2D3508083EB10051
:100A980036080318013E003EB20004300310B20CC1
:100AA800B10CFF3E031D522D3108831692008312AC
:100AB8001208FC3902389200873083129205080028
:100AC800FF1B6E2D83137F1883170008840A0319F0
:100AD800FF0A080005308A000408840A82070034E7
:100AE800013400340A34003464340034E834033404
:100AF80010342734503461347334733477346F349A
:100B080072346434203469346E3463346F3472342C
:100B1800723465346334743400345034613473345B
:100B2800733477346F3472346434203463346F34FC
:100B38007234723465346334743400345734653431
:100B48006134743468346534723420345334743402
:100B58006134743469346F346E3400345434653419
:100B68006D3470342F34463461346E342F34483445
:100B780075346D3400346534253464342F342534A9
:100B880064342F342534643400345034613473347D
:100B980073343A3400340030B9000030B800003003
:100BA800B7000030B60030082F042E042D040319B6
:100BB800242EBA01BA0AB01BEF2D0130B50003107C
:100BC800AD0DAE0DAF0DB00DB50BE32D0130B50079
:100BD8003508BA07DF2D0130B5000310B60DB70D83
:100BE800B80DB90DB50BF12D30083402031D062ED2
:100BF8002F083302031D062E2E083202031D062E6F
:100C08002D083102031C172E2D08B1022E08031CD3
:100C18002E0FB2022F08031C2F0FB3023008031C3B
:100C2800300FB402361401300310B00CAF0CAE0C08
:100C3800AD0CFF3E031D182E0130BA02031DEF2D27
:100C48003908B0003808AF003708AE003608AD00E4
:100C580008008312C1000030B0000030AF0000303F
:100C6800AE00FF30AD004108BB00BC01BD01BE01B4
:100C78003E08A3003D08A2003C08A1003B08A000D4
:100C8800831612088312BF00C0010310BF0DC00DE8
:100C98000310BF0DC00D03303F04A4000030400412
:100CA800A500A601A51BA6032608A7000A128A15F7
:100CB800C1270A128A112308B4002208B3002108A8
:100CC800B2002008B1000A128A11CF250A128A112F
:100CD8002E08C3002D08C2004308BC004208BB0010
:100CE8000310BC0CBB0C0310BC0CBB0C3B089500E0
:100CF80042080339BB0003300310BB0DFF3E031D40
:100D0800802E03103B0D0F38970008002D08AE0009
:100D1800AF012E08B3002F08B4002C080139AE002B
:100D28002E08B0002B08AE002E08B100B2010A123E
:100D38008A1533250A128A118312031330080319FE
:100D4800A72EA230A82EA0300A128A1515270A123B
:100D58008A1131080A128A1515270A128A113308CE
:100D68000A128A1515270A128A110A128A154125AC
:100D78000A128A11013083120313AE002E08B2073B
:100D88002C08A6002B08A5000A128A117A270A1235
:100D98008A11AE00AF0134082F06031DD52E330883
:100DA8002E06031908000A303202031808009B2E89
:100DB800831203130C1C062F0C10CF308F002C301D
:100DC8008E000A307A067B04031D002F0130F807D5
:100DD8000318F90A0030F907FA01FB0133307806E5
:100DE8007904031D062FDA300A128A155D260A12C5
:100DF8008A11F801F901062F0130FA070318FB0AD6
:100E08000030FB078B1C232F8B107C080319152F30
:100E18008712071197019001F801F901FA01FB0106
:100E28001A2F87160F309700313090007C08031D69
:100E38001F2F0130202F0030F4007408FC007708C1
:100E48008A0076088400750E8300FE0E7E0E090067
:100E58008312891009111430A0000030A1000A1271
:100E68008A15F0250A128A11891438300A128A154F
:100E780096250A128A110530A0000030A1000A1236
:100E88008A15F0250A128A1138300A128A15962511
:100E98000A128A110130A0000030A1000A128A1536
:100EA800F0250A128A1138300A128A1596250A1274
:100EB8008A1108300A128A1596250A128A110F30EB
:100EC8000A128A1596250A128A1101300A128A1501
:100ED80096250A128A1138300A128A1596250A129E
:100EE8008A1180300A128A159625080026080139C9
:100EF800A7002708AA002508A7002708A9000A12A2
:100F08008A1533250A128A11831203132A08031932
:100F18008F2FA230902FA0300A128A1515270A1297
:100F28008A1129080A128A1515270A128A110A1223
:100F38008A1533250A128A11831203132A08031902
:100F4800A72FA330A82FA1300A128A1515270A1235
:100F58008A1101300A128A11BD270A128A11A700C4
:100F68002708A8000A128A154125831203132808A6
:100F78000800A200A301871183160716831207161B
:100F8800A40187150A128A15F7240A128A118312F6
:100F98000313070E0139A0002408073C013ED62F91
:100FA8000310A00DFF3E031DD42F2008A100210827
:100FB800A30487110130A0002008A40708302402E8
:100FC800031CC52F83160712831222080319EE2F5C
:100FD8000712EF2F07160A128A15F7240A128A1128
:100FE8008312031387150A128A15F7248312031331
:080FF8008711230808000134F1
:10199E00A000200888000800303438343634323441
:1019AE000034023083169F00413083129F000800DE
:1019BE00F000700883129900831698180800E32C23
:1019CE008312A00020089900831698180800EB2CAB
:1019DE0064008001840A0406031900340406F02C06
:1019EE0000000000000000000000000000000000E9
:1019FE00080031309000CF308F002C308E008B17C6
:101A0E0083160C140B170B16080067309900181369
:101A1E0098161812181583129817181318168C1278
:101A2E00080088018601831688010F3086007F30FA
:101A3E008312A00020088316810508008316071163
:101A4E0088120F308312970012158C108C1C2D2DBE
:101A5E008C108C180800302D871507160A128A155F
:101A6E00F7240A128A158312031307120A128A1513
:101A7E00F7240800871507120A128A15F7240A128E
:101A8E008A158312031307160A128A15F724080003
:101A9E00C0300A128A1596250A128A152B08A7003D
:101AAE002C08A8000A128A1511260800AB008030F7
:101ABE000A128A1596250A128A152B08A7000030DD
:101ACE00031D8030A8000A128A15112608007830EE
:101ADE0083120313A8002808A90078302906031DD5
:101AEE007E2D0A128A1196230A128A15712D290843
:101AFE000800A4002408A2002208A30023088400E2
:101B0E00000803198F2D0130A2002208A307852D8E
:101B1E0024082302A000A101A01BA1030800A60017
:101B2E00891426080A128A15CF240A128A15091159
:101B3E000330A0000030A1000A128A15F0250A1207
:101B4E008A1589100330A0000030A1000A128A15F0
:101B5E00F025891408008312A600891426080A129B
:101B6E008A15CF240A128A1509150330A0000030F9
:101B7E00A1000A128A15F0250A128A15891003305F
:101B8E00A0000030A1000A128A15F0258914080061
:101B9E00AE01AF012A1CD92D2C08AE070318AF0ACF
:101BAE002D08AF0701300310AC0DAD0DFF3E031D28
:101BBE00DA2D01300310AB0CAA0CFF3E031DE12DF4
:101BCE002A082B04031DD12D2F08AB002E08AA00C6
:101BDE000800A301A40121082402031DF82D2008EA
:101BEE00230203180800A5010000000000000000F9
:101BFE000000013083120313A2002208A507C8308B
:101C0E002502031CFB2D0130A3070318A40A003084
:101C1E00A407F22DAA012A08270784002808031812
:101C2E00280AFF000A128A1164250A128A15003A40
:101C3E00031908002A082707840028080318280A11
:101C4E00FF000A128A1164250A128A150A128A15D1
:101C5E00B2250A128A150130A9002908AA07122EE8
:101C6E00A600462E2608840000080319572E0130C0
:101C7E00A2002208A6070130A2002208A007200811
:101C8E00840083130008A200260884000008A30025
:101C9E0022082302A4002408A50025080319392EC2
:101CAE002508A000A101A01BA1030800F200F3016A
:101CBE0073087207F100710884008313000803197A
:101CCE00782E73087207F1007108840000080A125A
:101CDE008A15DF240A128A150130F1007108F30704
:101CEE005F2E0A300A128A15DF240A128A150D3069
:101CFE000A128A15DF2483128C120800A300A20197
:101D0E0022082307A1002108840083130008031969
:101D1E00A12E22082307A1002108840000080A1220
:101D2E008A15E7240A128A1501308312A1002108B0
:101D3E00A207872E0A300A128A15E7240A128A157C
:101D4E000D300A128A15E72483128C120800380807
:101D5E0039040319DB2EBD01BD0AB91BC22E013099
:101D6E000310B80DB90DFF3E031DB72E0130BC0098
:101D7E003C08BD07B42E39083B02031DC82E380897
:101D8E003A02031CD02E3808BA023908031CBB03D2
:101D9E00BB0201300310B90CB80CFF3E031DD12E4F
:101DAE000130BD02031DC22E3B08B9003A08B8002F
:101DBE000800A4002408A3002308A500210822047B
:101DCE000319082F0130A1020030031CA203A20246
:101DDE00200884000130A00783130008A300250803
:101DEE0084000130A5072308800000080319082F7E
:101DFE00E52E25088400831380010130A3002308FB
:101E0E00A5070130A1020030031CA203A202210A81
:101E1E00031D002F220A03190800002FA2008711AC
:101E2E00A3012208A0002308073C013E202F031027
:101E3E00A00CFF3E031D1E2F20080139A100A10E8C
:101E4E0007082106EF392106870087150A128A1521
:101E5E00F7240A128A158312031387110130A0008A
:101E6E002008A30708302302031C182F07160A1296
:101E7E008A15F7240A128A158312031387150A127C
:101E8E008A15F7248312031387110800A900562F11
:101E9E000130542F0930542F11309F00612F290823
:101EAE00003A03194F2F013A0319512F033A031920
:101EBE00532F612F1F151F19622F83161E088312B1
:101ECE00A20006300310A20CFF3E031D692F22084C
:101EDE00A300A4011E08A500A6010310A50DA60DC2
:101EEE000310A50DA60D23082504A700240826041B
:101EFE00A8002708A0002808A1000800B501B60117
:101F0E00300831040319BC2FB701B70AB11B9B2F40
:101F1E0001300310B00DB10DFF3E031D902F0130A7
:101F2E00B4003408B7078D2F01300310B50DB60D70
:101F3E00FF3E031D9C2F31083302031DA82F3008CE
:101F4E003202031CB12F3008B2023108031CB30356
:101F5E00B302351401300310B10CB00CFF3E031D5B
:101F6E00B22F0130B702031D9B2F3608B100350882
:101F7E00B00008000030AC000030AB000030AA000A
:101F8E000030A900201CDF2F2408A9072508031103
:101F9E000318013E031DAA07260803110318013E6C
:101FAE00031DAB07270803110318013E031DAC07E1
:101FBE000130A8000310A40DA50DA60DA70DA80BAA
:101FCE00E12F01300310A30CA20CA10CA00CFF3EBC
:101FDE00031DE92F2308220421042004031DC92F09
:101FEE002C08A3002B08A2002A08A1002908A00093
:021FFE000800D9
:02400E003A3F37
:00000001FF
