:060000000A128A11122809
:10000800FE00030E83120313B5000408B6000A08A5
:10001800B7007F08B8000A128A15512E0A128A11F1
:10002800152883160A128A15D7200A128A11D100B8
:100038000A128A15D8200A128A11D2000A128A15C1
:10004800D9200A128A11D3000A128A15DA200A1254
:100058008A11D4000A128A15DB200A128A11D500E7
:1000680083120A128A15D0200A128A11D4000A12A1
:100078008A15D1200A128A11D5000A128A15D220AF
:100088000A128A11D600831790308400B8300A12F9
:100098008A15F8200A128A118313C6308400D130D9
:1000A8000A128A15F8200A128A114A30840054303C
:1000B8000A128A15F82083010A128A116328C330AC
:1000C80083168500FF30860080308700880189010B
:1000D8000A128A15E3250A128A110A128A1537218B
:1000E8000A128A1183160317CF01D0011430D300E6
:1000F8000030D4002830D5000030D6005030D7006A
:100108000030D800B83084000313510883178000EA
:10011800840A52088000840A53088000840A54081C
:100128008000840A550880000317D101D201831288
:1001380003138714831603175108031D26292C302F
:1001480083120313C5008630C6005330C7008630BB
:10015800C8000A128A15AB220A128A116330831664
:10016800C00040088312BF00C5300A128A15102249
:100178000A128A1183160317DA01DB010A128A159B
:1001880048210A128A118316C00003175A08CA3E6A
:10019800840003134008831780006430C0004008BF
:1001A8008312BF00831603175A08CA3E840000084A
:1001B8000A128A1510220A128A11013083160317AF
:1001C800DA070318DB0A0030DB075B08803AFF0018
:1001D80080307F02031DF22804305A02031CC22813
:1001E800CA3083120313B9000130BA00B83083163D
:1001F800C00040088312BB000A128A157E220A1228
:100208008A1139083A04031D132983160317D101EB
:10021800D10A1B3083120313C50086301629083013
:10022800C5008630C6000A128A156C210A128A1186
:100238003230B9000030BA000A128A15EF210A12CA
:100248008A119E280730031385000A128A150C218B
:100258000A128A110A128A15DC200A128A11E83059
:100268008312C8000330C9000A128A154E240A12E4
:100278008A110A128A15E2200A128A110A128A15AC
:1002880000210A128A118312D601D60A87163C3039
:10029800C5008630C6000A128A155A210A128A1128
:1002A80056080319542986196D29831603174F0810
:1002B8005004031D6D29031083120313871E0314B2
:1002C800031C6A298312031387166D2983120313EB
:1002D8008712031083120313861D031400300318BA
:1002E80001308316C000C10140080317CF00031373
:1002F80041080317D00066300313A0000030A100A6
:1003080000300A128A15DC230A128A113A08C4003E
:100318003908C3000A30C5000030C6000A128A1521
:10032800CE210A128A1144088316A30083124308B7
:100338008316A2000A128A15C5240A128A112108F6
:100348008312CF00831620088312CE0064308316F0
:10035800A0000030A10083124F08C4004E08C3005B
:10036800FF30C5000030C6000A128A15CE210A12D5
:100378008A1144088316A300831243088316A20037
:100388000A128A15C5240A128A1121080317C900FE
:10039800031320080317C800831203134E080A1218
:1003A8008A1528210A128A1166308316A0000030A7
:1003B800A10001300A128A15DC230A128A113A08B0
:1003C800C4003908C3000A30C5000030C6000A124C
:1003D8008A15CE210A128A1144088316A3008312B3
:1003E80043088316A2000A128A15C5240A128A1124
:1003F80021088312CD00831620088312CC00CA304E
:100408008316A0000030A10002300A128A15DC23EE
:100418000A128A113A08C4003908C3006430C500BA
:100428000030C6000A128A15CE210A128A11440821
:100438008316A300831243088316A2000A128A15A2
:10044800C5240A128A1121088312CB0083162008BA
:100458008312CA00C6308316AD000030AE004A30A1
:10046800AF008630B00083124B088316B2008312A7
:100478004A088316B10083124F088316B40083120A
:100488004E088316B30083124D088316B6008312F4
:100498004C088316B5000A128A1159260A128A11C5
:1004A800C6308312B9000030BA00BD308316C000D0
:1004B80040088312BB000A128A157E220A128A118A
:1004C80039083A040319B72ABD30B9000130BA0017
:1004D8000A128A11E3270A128A1139088316C00002
:1004E80083123A088316C100C6308312B90000305F
:1004F800BA000A128A11E3270A128A113A088316E7
:100508004106031D8B2A83123908831640060319F6
:10051800A12A6330C00040088312BF0001300A12CC
:100528008A1510220A128A113C30C5008630C6008E
:100538000A128A155A210A128A11C6308312C50076
:100548000030C6000A128A156C210A128A11C630B8
:100558008316C00040088312B900BD300A128A15FC
:1005680094210A128A11831603175408831203135D
:100578004D02031DC52A831603175308831203135C
:100588004C020318522B4F08831603175802031DF9
:10059800D32A831203134E0883160317570203182E
:1005A800522B831203134B08831603175602031D9D
:1005B800E32A831203134A08831603175502031804
:1005C800522B831203138710803088008316031779
:1005D8005208031D4E2B90300313AD000130AE00BE
:1005E8001C30AF008530B00083124B088316B20070
:1005F80083124A088316B10083124F088316B40089
:1006080083124E088316B30083124D088316B60072
:1006180083124C088316B5000A128A1159260A1249
:100628008A1190308312BA000130BB000A128A1571
:1006380072230A128A110130C6000030C7004A0826
:100648008316C00040088312C8000A128A1588253C
:100658000A128A1102308312C6000030C7004E0801
:100668008316C00040088312C8000A128A1588251C
:100678000A128A1103308312C6000030C7004C08E2
:100688008316C00040088312C8000A128A158825FC
:100698000A128A110317D201D20A582B831603179C
:1006A800D201831203138714831203138C1E202C88
:1006B800D9300A128A15A6230A128A118C12102C14
:1006C800013083120313C0000030C1000A128A15DA
:1006D80045250A128A11FF3A0319BE2B903083165A
:1006E800AD000130AE006630AF008530B00001309B
:1006F8008312C0000030C1000A128A1545250A126B
:100708008A118316C000C1014008B1004108B20037
:1007180002308312C0000030C1000A128A15452534
:100728000A128A118316C200C3014208B3004308A3
:10073800B40003308312C0000030C1000A128A15C9
:1007480045250A128A118316C400C5014408B5005C
:100758004508B6000A128A1159260A128A119030E1
:100768008312BA000130BB000A128A1572230A12DA
:100778008A11202CF130BA008530BB000A128A1584
:1007880072230A128A11202C0A30D3000030D400B8
:100798003230D5000030D6005A30D7000030D800AB
:1007A8008B3083120313BA008530BB000A128A15F6
:1007B80072230A128A11202C1430D3000030D4007E
:1007C8002830D5000030D6005030D7000030D8008F
:1007D800AD3083120313BA008530BB000A128A15A4
:1007E80072230A128A11202C1E30D3000030D40044
:1007F8001E30D5000030D6004630D7000030D80073
:10080800CF3083120313BA008530BB000A128A1551
:1008180072230A128A11202C831603175908613A89
:100828000319C82B033A0319E02B013A0319F82BD3
:100838000B3A0319642B202C143083120313B900CC
:100848000030BA000A128A15EF210A128A115429B7
:10085800831203138811081588140814B901BA0102
:10086800013083120313B9070318BA0A0030BA0714
:100878003A08803AFF0080307F02031D452C05307E
:100888003902031C342C83120313061C8819502CBC
:10089800061C4C2C31300800861C8819572C861CE5
:1008A800532C32300800061D88195E2C061D5A2C60
:1008B800333008008815081188140814BB01BC01DE
:1008C800013083120313BB070318BC0A0030BC07AE
:1008D8003C08803AFF0080307F02031D752C0530EC
:1008E8003B02031C642C83120313061C0819802C7A
:1008F800061C7C2C34300800861C0819872C861CA2
:10090800832C35300800061D08198E2C061D8A2CEC
:10091800363008008815081588100814BD01BE0176
:10092800013083120313BD070318BE0A0030BE0747
:100938003E08803AFF0080307F02031DA52C053059
:100948003D02031C942C83120313061C8818B02C38
:10095800061CAC2C37300800861C8818B72C861C5F
:10096800B32C38300800061D8818BE2C061DBA2C7A
:10097800393008008815081588140810BF01C0010F
:10098800013083120313BF070318C00A0030C007E1
:100998004008803AFF0080307F02031DD52C0530C7
:1009A8003F02031CC42C83120313061C0818E02CF6
:1009B800061CDC2C2A300800861C0818E72C861C2C
:1009C800E32C30300800061D0818EE2C061DEA2C12
:1009D80023300800783008008312871507160A129A
:1009E8008A157E210A128A118312031307120A122A
:0609F8008A157E210800B3
:100A0000FF1B0A2D83137F1883170008840A03191C
:100A1000FF0A08007F087F398A000408840A031946
:100A2000FF0A8200013400340A3400346434003494
:100A3000E8340334103427347B34223473342234C2
:100A40003A34223465346D347234673422342C34B1
:100A500020342234743422343A34253464342C342F
:100A600020342234773422343A34253464342C341C
:100A700020342234683422343A34253464347D34CA
:100A800000347B342234733422343A342234313407
:100A90006D3469346E3422342C342034223474346E
:100AA00022343A34253464342C34203422347734DC
:100AB00022343A34253464342C34203422346834DB
:100AC00022343A34253464347D3400347B34223487
:100AD000733422343A3422346834693473347434CD
:100AE00022342C3420342234743422343A342534E1
:100AF00064342C3420342234773422343A3425348C
:100B000064342C3420342234683422343A3425348A
:100B100064347D3400347B342234733422343A34E8
:100B2000223465346D3465347234673465346E3420
:100B300063347934203463346F346E34663469340A
:100B4000673420346F347034743469346F346E34E5
:100B50002034413422347D3400347B3422347334E5
:100B600022343A34223465346D3465347234673457
:100B700065346E3463347934203463346F346E34C6
:100B800066346934673420346F34703474346934B3
:100B90006F346E342034423422347D3400347B345C
:100BA0002234733422343A34223465346D3465345B
:100BB0007234673465346E3463347934203463348A
:100BC0006F346E3466346934673420346F34703473
:100BD000743469346F346E342034433422347D34B9
:100BE00000347B342234733422343A3422346E3469
:100BF0006F34203465346D34653472346734653451
:100C00006E34633469346534733422347D34003493
:100C1000503461347334733477346F3472346434E1
:100C2000203469346E3463346F3472347234653412
:100C3000633474340034503461347334733477342F
:100C40006F3472346434203463346F3472347234E9
:100C50006534633474340034573465346134743427
:100C600068346534723420345334743461347434E9
:100C700069346F346E340034543465346D347034F8
:100C80002F34573469346E3464342F344834753417
:100C90006D340034253464342F34253464342F34D7
:100CA00025346434003450346134733473343A344A
:100CB0000034B130B7003708BA003008B8002F0848
:100CC000B700AF0A0319B00A38088312FF00831671
:100CD0003708840083120A128A1100250A128A1129
:100CE0008316B9003908BF003F0803194F2F25307C
:100CF0003F0603198B2E3F08B7002D088400831789
:100D00002E1C8313370880000130AD070318AE0A8C
:100D10000030AE075D2EBB013008B8002F08B700C9
:100D2000AF0A0319B00A38088312FF008316370888
:100D3000840083120A128A1100250A128A1183166E
:100D4000BF00003A03194F2F643A0319AB2E0D3A36
:100D50000319AB2E5D2E3A08840083130008BD00F2
:100D6000840A0008BE000230B7003708BA07BE1F69
:100D7000C22E0330B7003708BB04BD09BE09BD0A47
:100D80000319BE0ABF01BF0A3F08B7003707123E6A
:100D9000840085300318013E8312FF000A128A1175
:100DA00000250A128A118316B80083120A128A11CA
:100DB00000250A128A118316B90039083E02031D64
:100DC000E32E38083D02031CED2E0130B700370832
:100DD000BF0705303F06031DC42E3B080339031926
:100DE000002F2D30B7002D08840083172E1C83138D
:100DF000370880000130AD070318AE0A0030AE0797
:100E00003F08B7003708BC00FF30B7003708BC0701
:100E10003C0A03195D2E0A30A7000030A8003C08E8
:100E2000B7003707123E840085300318013E831255
:100E3000FF000A128A1100250A128A118316A000E7
:100E400083120A128A1100250A128A118316A10040
:100E50003E08A3003D08A2000A128A15C5240A1202
:100E60008A112108AA002008A9000A128A150C2359
:100E70000A128A112708303EB8003808BF003F0820
:100E8000B7002D08840083172E1C831337088000B9
:100E90000130AD070318AE0A0030AE07042F2D084D
:100EA000840083172E1C831380010800C301BC1F1C
:100EB000662FB909BA09BB09BC09B90A0319BA0AEC
:100EC0000319BB0A0319BC0AC301C30AC01F772F49
:100ED000BD09BE09BF09C009BD0A0319BE0A03192D
:100EE000BF0A0319C00A0130C1004108C30600301F
:100EF000C7000030C6000030C5000030C4003C0808
:100F00003B043A0439040319CC2FC201C20ABC1BAA
:100F1000972F0130C1000310B90DBA0DBB0DBC0DE8
:100F2000C10B8B2F0130C1004108C207872F013050
:100F3000C1000310C40DC50DC60DC70DC10B992FFF
:100F40003C084002031DAE2F3B083F02031DAE2F9D
:100F50003A083E02031DAE2F39083D02031CBF2F85
:100F60003908BD023A08031C3A0FBE023B08031CB5
:100F70003B0FBF023C08031C3C0FC002441401306D
:100F80000310BC0CBB0CBA0CB90CFF3E031DC02FE8
:100F90000130C202031D972F43080319DA2FC40939
:100FA000C509C609C709C40A0319C50A0319C60A2F
:100FB0000319C70A4708BC004608BB004508BA0029
:100FC0004408B90008003908BB003A08BC003B08D7
:100FD000840083173C1C831300080319F62F01308B
:100FE000BB070318BC0A0030BC07E72F39083B02D7
:0E0FF000B9003A08031C3A0A3C02BA00080095
:1011A000FF34FF3401348C1ED3281A080800303471
:1011B000383436343234003441309F0002308316E4
:1011C0009F00080083160712831287150716080070
:1011D000F000700883129900831698180800EC2814
:1011E0008312B90039089900831698180800F4286A
:1011F00064008001840A0406031900340406F928F7
:1012000031309000CF308F002C308E008B1783163A
:101210000C140B170B1608001930990087170713C9
:1012200018139816181218158312981718131816F1
:101230008C120800871507120A128A157E210A12DD
:101240008A158312031307160A128A157E210800D5
:10125000BA000F3097003A08B90002300310B90CF9
:10126000FF3E031D2E29390895001215080083162C
:1012700008108810081188110614861406158312A8
:101280008815081588140814061486140615080015
:10129000783083120313C1004108C200783042063F
:1012A000031D58290A128A112C240A128A154B2967
:1012B000420808006330C7004708BF0080300A12A8
:1012C0008A1510220A128A154508C1004608C20074
:1012D0000A128A15542208006330C7004708BF006D
:1012E000C0300A128A1510220A128A154508C10058
:1012F0004608C2000A128A1554220800B901BA0130
:10130000013083120313B9070318BA0A0030BA0771
:101310003A08803AFF0080307F02031D9129053092
:101320003902031808008029BB003B08BA003A08BC
:10133000BC003908840083130008BA003C0884000C
:101340003A08831780000008031908000130BA002A
:101350003A08BC070130BA003A08B9079929F301E5
:10136000F40171087402031DB72970087302031891
:101370000800F5010000000000000000000001303E
:10138000F2007208F507C8307502031CBA29013053
:10139000F3070318F40A0030F407B129C701C801A4
:1013A000431CD8294508C7070318C80A4608C807B8
:1013B00001300310C50DC60DFF3E031DD9290130B4
:1013C0000310C40CC30CFF3E031DE0294308440472
:1013D000031DD0294808C4004708C3000800BC0109
:1013E000BD013A083D02031DF72939083C020318E4
:1013F0000800BE01000000000000000000000130F5
:1014000083120313BB003B08BE07C8303E02031C17
:10141000FA290130BC070318BD0A0030BD07F129C5
:1014200083120313C00089144008880063303F060C
:101430000319091164303F06031909150330B90077
:101440000030BA000A128A15EF210A128A15891093
:101450000330B9000030BA000A128A15EF2189144E
:101460000800F700891477088800633076060319AE
:10147000091164307606031909150330F0000030B5
:10148000F1000A128A15AF210A128A15831203137A
:1014900089100330F0000030F1000A128A15AF21E4
:1014A0008312031389140800C4014408410784000F
:1014B00042080318420AFF000A128A1100250A1284
:1014C0008A15003A031908006430C3004308BF00BE
:1014D00044084107840042080318420AFF000A1228
:1014E0008A1100250A128A150A128A1510220A1278
:1014F0008A150130C3004308C407552A912A3908C8
:10150000840083173A1C831300080319A52A0130AD
:10151000B9070318BA0A0030BA070130BC003C080A
:10152000BB073B08840083170008BC00390884000F
:1015300083173A1C83130008BD003C083D02BE001F
:101540003E08BF003F0803197F2A3F08B900BA01CF
:10155000B91BBA0308006330C9004908BF00013055
:101560000A128A1510220A128A156330C900490826
:10157000BF0080300A128A1510220A128A15450807
:10158000C1004608C2000A128A1554220A128A159E
:101590006330C9004908BF00C0300A128A15102202
:1015A0000A128A154708C1004808C2000A128A15A3
:1015B00054220800780879040319072BFD01FD0A5D
:1015C000F91BEE2A01300310F80DF90DFF3E031D43
:1015D000E32A0130FC007C08FD07E02A79087B0241
:1015E000031DF42A78087A02031CFC2A7808FA0200
:1015F0007908031CFB03FB0201300310F90CF80C03
:10160000FF3E031DFD2A0130FD02031DEE2A7B086B
:10161000F9007A08F8000800270828040319392B74
:10162000AC01AC0AA81B202B01300310A70DA80D9C
:10163000FF3E031D152B0130AB002B08AC07122B0E
:1016400028082A02031D262B27082902031C2E2BFB
:101650002708A9022808031CAA03AA0201300310C4
:10166000A80CA70CFF3E031D2F2B0130AC02031D5D
:10167000202B2A08A8002908A7000800F4017408F4
:101680007107840072080318720A8312FF000A129D
:101690008A1100250A128A15003A0319652B74086D
:1016A0007107840072080318720AFF000A128A1177
:1016B00000250A128A150A128A15E8200A128A15CC
:1016C0000130F3007308F4073F2B0A300A128A1521
:1016D000E8200A128A150D300A128A15E8208312B2
:1016E0008C120800BD013D083A0784003B0803182E
:1016F0003B0AFF000A128A1100250A128A15003AD5
:101700000319992B3D083A0784003B0803183B0A4C
:10171000FF000A128A1100250A128A150A128A1578
:10172000F0200A128A1501308312BC003C08BD0764
:10173000732B0A300A128A15F0200A128A150D300E
:101740000A128A15F02083128C120800BB00BD011A
:10175000BE01BD01BE01C82B0A303C060319D42BC3
:101760000D303C060319D42B3C08B9003D083B075B
:10177000BA003A0884003908831780000130BD0799
:101780000318BE0A0030BE073D083E04031DD42BDB
:101790000A128A15D3200A128A15B9003908BC002A
:1017A0008C123C08031DAC2B3D083B07B9003908DF
:1017B00084008317800108008312C200E62B0130E9
:1017C000E42B0930E42B11309F00F12B4208003A42
:1017D0000319DF2B013A0319E12B033A0319E32B19
:1017E000F12B1F151F19F22B83161E088312BB0045
:1017F00006300310BB0CFF3E031DF92B3B08BC0059
:10180000BD011E08BE00BF010310BE0DBF0D0310B9
:10181000BE0DBF0D3C083E04C0003D083F04C100A2
:101820004008B9004108BA0008008312BD008711C2
:10183000BE013D08BB003E08073C013E212C0310C1
:10184000BB0CFF3E031D1F2C3B080139BC00BC0E26
:1018500007083C06EF393C06870087150A128A15EF
:101860007E210A128A158312031387110130BB00EF
:101870003B08BE0708303E02031C192C07160A124B
:101880008A157E210A128A158312031387150A12FC
:101890008A157E21831203138711080049088316D5
:1018A000A100831248088316A0000310A00DA10D0B
:1018B0000310A00DA10D0310A00DA10D0310A00D8C
:1018C000A10D20088312B900831621088312BA00E3
:1018D000BB01BC010030C0003D30BF000930BE007C
:1018E0000030BD000A128A1156270A128A153908DB
:1018F000FF3E8316920007110F3083129700FF30CE
:10190000950012158C108C1C832C8C108C180800E0
:10191000862CF501F601700871040319C02CF7013B
:10192000F70AF11B9F2C01300310F00DF10DFF3E63
:10193000031D942C0130F4007408F707912C01303A
:101940000310F50DF60DFF3E031DA02C7108730268
:10195000031DAC2C70087202031CB52C7008F20237
:101960007108031CF303F302751401300310F10C2A
:10197000F00CFF3E031DB62C0130F702031D9F2C17
:101980007608F1007508F0000800A501A6012008FE
:1019900021040319FE2CA401A40AA11BDD2C013093
:1019A0000310A00DA10DFF3E031DD02C01308312AA
:1019B000C90049088316A407CD2C01300310A50DDA
:1019C000A60DFF3E031DDE2C21082302031DEA2C79
:1019D00020082202031CF32C2008A2022108031C69
:1019E000A303A302251401300310A10CA00CFF3E99
:1019F000031DF42C0130A402031DDD2C2608A100D8
:101A00002508A0000800BD00BE0187118316071637
:101A100083120716BF0187150A128A157E210A1242
:101A20008A1583120313070E0139BB003F08073CD8
:101A3000013E1C2D0310BB0DFF3E031D1A2D3B085C
:101A4000BC003C08BE0487110130BB003B08BF0747
:101A500008303F02031C0B2D8316071283123D082A
:101A60000319342D0712352D07160A128A157E2107
:101A70000A128A158312031387150A128A157E210A
:101A80008312031387113E08080041080139C20080
:101A90004208C5004008C2004208C4000A128A1168
:101AA000F0240A128A1583120313450803195A2DCC
:101AB000A2305B2DA0300A128A1515240A128A154D
:101AC00044080A128A1515240A128A150A128A1164
:101AD000F0240A128A158312031345080319722D84
:101AE000A330732DA1300A128A1515240A128A1503
:101AF00001300A128A1503250A128A15C20042080B
:101B0000C3000A128A151A2183120313430808001E
:101B100048088316A000A1012008A5002108A600FE
:101B20008312470801398316A0002008A2008312FF
:101B300046088316A0002008A300A4010A128A11F7
:101B4000F0240A128A158316031322080319AA2DFA
:101B5000A230AB2DA0300A128A1515240A128A155C
:101B6000831623080A128A1515240A128A15831669
:101B700025080A128A1515240A128A150A128A15CE
:101B80001A210A128A15013083160313A0002008B7
:101B9000A40783124708C1004608C0000A128A152C
:101BA00045250A128A158316A000A10126082106E0
:101BB000031DDC2D25082006031908000A30240225
:101BC000031808009E2D8312891009111430B900E2
:101BD0000030BA000A128A15EF210A128A158914F8
:101BE0006330C1004108BF0038300A128A15102244
:101BF0000A128A150530B9000030BA000A128A1597
:101C0000EF210A128A156330C1004108BF00383045
:101C10000A128A1510220A128A150130B900003002
:101C2000BA000A128A15EF210A128A156330C10020
:101C30004108BF0038300A128A1510220A128A158C
:101C40006330C1004108BF0008300A128A15102213
:101C50000A128A156330C1004108BF000F300A1212
:101C60008A1510220A128A156330C1004108BF008C
:101C700001300A128A1510220A128A156330C10037
:101C80004108BF0038300A128A1510220A128A153C
:101C90006330C1004108BF0080300A128A1510224B
:101CA00008000C1CD72E0C10CF308F002C308E006B
:101CB0000A3052065304031DD12E540A0319550A43
:101CC00003199B2E54084E02B3005508031C550AF5
:101CD0004F02B40000303402473003193302031CB2
:101CE0009B2E4F085502031D772E4E0854020318F1
:101CF0009B2E9030A0000130A1001C30A200853046
:101D0000A3004B08A5004A08A4004F08A7004E08EE
:101D1000A6004D08A9004C08A8000A128A150F2732
:101D20000A128A159030F1000130F2000A128A1569
:101D30003E230A128A154F08D5004E08D400013000
:101D4000D0070318D10A0030D107D201D3013330B4
:101D500050065104031DD72E9030A0000130A10081
:101D60004130A2008530A3004B08A5004A08A4001A
:101D70004F08A7004E08A6004D08A9004C08A8006F
:101D80000A128A150F270A128A159030F1000130C5
:101D9000F2000A128A153E230A128A15D001D101D7
:101DA000D72E0130D2070318D30A0030D3078B1C7B
:101DB000042F8B1056080319EC2E87128714071175
:101DC00097019001D001D101D201D3016330B3005A
:101DD0003308F6000830F62E87160F3097003130A2
:101DE00090006330B3003308F6000F300A128A15F2
:101DF00031220A128A155608031D002F0130012FC7
:101E00000030B3003308D6003808FF0037088A00D6
:101E100036088400350E8300FE0E7E0E0900243045
:101E2000AA002A08AD002308AB002208AA00A20AD3
:101E30000319A30A2B08FF002A0884000A128A113A
:101E400000250A128A15AC002C08B20032080319CA
:101E5000F92F2530320603193D2F3208AA00200839
:101E600084008317211C83132A0880000130A007F7
:101E70000318A10A0030A107132FAE012308AB00FD
:101E80002208AA00A20A0319A30A2B08FF002A08A5
:101E900084000A128A1100250A128A15B200003A3B
:101EA0000319F92F643A0319592F0D3A0319592FC1
:101EB000132F2D08840083130008B000840A000843
:101EC000B1000230AA002A08AD07B11F702F0330FD
:101ED000AA002A08AE04B009B109B00A0319B10A70
:101EE000B201B20A0530320603199B2F3208AA004C
:101EF0002A07123E840085300318013EFF000A12B3
:101F00008A1100250A128A15AB000A128A110025CF
:101F10000A128A15AC002C083102031D912F2B08E0
:101F20003002031C9B2F0130AA002A08B20705309B
:101F30003206031D762F2E0803390319AE2F2D30DC
:101F4000AA00200884008317211C83132A0880001C
:101F50000130A0070318A10A0030A1073208AA0027
:101F60002A08AF00FF30AA002A08AF072F0A03197A
:101F7000132F0A30F8000030F9002F08AA002A07B2
:101F8000123E840085300318013EFF000A128A11B8
:101F900000250A128A15F0000A128A1100250A1279
:101FA0008A15F1003108F3003008F2000A128A1590
:101FB00089240A128A157108FB007008FA000A12B7
:101FC0008A15DA220A128A157808303EAB002B08EF
:101FD000B2003208AA00200884008317211C831352
:101FE0002A0880000130A0070318A10A0030A107C9
:101FF000B22F200884008317211C8313800108005E
:02400E003A3F37
:00000001FF
