:100000000A128A11FC2FFF1B0D2883137F188317F8
:100010000008840A0319FF0A080000308A00040857
:10002000840A82070034013400340A340034643412
:100030000034E8340334103427340D340A342034C7
:10004000503469346334733469346D346C346134DE
:1000500062340D340A3400344334613472347234FF
:10006000653467346F347534203465346D3420342E
:10007000423431340034413444344334203476340F
:1000800061346C34753465343A3400344234653448
:100090006D342034763469346E3464346F34003413
:1000A00032343034203461342034533441344434D5
:1000B00000347234653472340034253464340034CE
:1008680041309F00023083169F0008008312031353
:100878008C1E3A2C8C121A080800F000700883129B
:100888009900831698180800452C1930831699008A
:100898008717071318139816181218158312981724
:1008A800181318168C120800F301F4017108740269
:1008B800031D602C7008730203180800F50100007E
:1008C80000000000000000000130F2007208F50787
:1008D800C8307502031C632C0130F3070318F40AAF
:1008E8000030F4075A2CF301F40171087402031D57
:1008F8007F2C7008730203180800F501000000003F
:100908000000000000000130F2007208F507C8304E
:100918007502031C822C0130F3070318F40A003017
:10092800F407792CF70083120313891477088800D9
:100938006330760603190911643076060319091520
:100948000330F0000030F1000A128A1177240A12ED
:100958008A118312031389100330F0000030F1006C
:100968000A128A1177248312031389140800831248
:100978000313A001A1017A1CC92C7C08831203135C
:10098800A0070318A10A7D08A10701300310FC0D78
:10099800FD0DFF3E031DCA2C01300310FB0CFA0CA1
:1009A800FF3E031DD12C7A087B04031DBF2C831244
:1009B80003132108FB002008FA000800FB017B084C
:1009C8007807840079080318790AFF000A128A1147
:1009D80003200A128A11003A031908006430FA0049
:1009E8007A08F6007B087807840079080318790AE2
:1009F800FF000A128A1103200A128A110A128A11A8
:100A080096240A128A110130FA007A08FB07E32CAF
:100A18006330FC007C08F60001300A128A11962423
:100A28000A128A116330FC007C08F60080300A1232
:100A38008A1196240A128A112008F8002108F90060
:100A48000A128A11E2240A128A116330FC007C0817
:100A5800F600C0300A128A1196240A128A11220856
:100A6800F8002308F9000A128A11E22408002A086B
:100A78002B040319682DAF01AF0AAB1B4F2D0130B2
:100A88000310AA0DAB0DFF3E031D442D0130AE002F
:100A98002E08AF07412D2B082D02031D552D2A08BE
:100AA8002C02031C5D2D2A08AC022B08031CAD0385
:100AB800AD0201300310AB0CAA0CFF3E031D5E2DE6
:100AC8000130AF02031D4F2D2D08AB002C08AA00E2
:100AD8000800F40174087107840072080318720A88
:100AE80083120313FF000A128A1103200A128A11C3
:100AF800003A0319952D74087107840072080318C9
:100B0800720AFF000A128A1103200A128A110A12B5
:100B18008A1141240A128A110130F3007308F4077C
:100B28006E2D0A300A128A1141240A128A110D30D8
:100B38000A128A11412483128C120800F900AD2D83
:100B48000130A92D0930A92D1130831203139F00FC
:100B5800B82D7908003A0319A42D013A0319A62DD6
:100B6800033A0319A82DB82D831203131F151F1953
:100B7800BB2D83161E08F20006300310F20CFF3E50
:100B8800031DC12D7208F300F40183121E08F5003D
:100B9800F6010310F50DF60D0310F50DF60D7308AB
:100BA8007504F70074087604F8007708F0007808F0
:100BB800F1000800A701A801220823040319152E33
:100BC800A901A90AA31BF42D01300310A20DA30D3E
:100BD800FF3E031DE92D0130A6002608A907E62DD2
:100BE80001300310A70DA80DFF3E031DF52D2308A6
:100BF8002502031D012E22082402031C0A2E2208A6
:100C0800A4022308031CA503A5022714013003101E
:100C1800A30CA20CFF3E031D0B2E0130A902031DDD
:100C2800F42D2808A3002708A2000800F600F40104
:100C3800F501740875040319232E2030282E0A1292
:100C48008A113A240A128A11F2007608840072087E
:100C580083138000760884000A3000060319542E96
:100C6800760884000D3000060319542E7608840097
:100C780000080319542E0130F2007208F607FF30FD
:100C8800F0070318F10AFF30F1077108803AFF00F6
:100C980080307F02031D522E0230700203181D2E71
:100CA80076088400831380010800C330831685000A
:100CB8000330860081308700880189010A128A1171
:100CC800BE260A128A110A128A1149240A128A11A6
:100CD8000A128A1134240A128A11831288013430C4
:100CE800A0008030A1003E30A2008030A3000A128C
:100CF8008A110C250A128A1188010730831685008B
:100D080019308312A0008030A1004730A200803043
:100D1800A3000A128A110C250A128A118618922E2B
:100D28000B30F1008030F2000A128A116D250A1288
:100D38008A110B30F0000030F1003F300A128A119E
:100D48001A260A128A113F30F1000030F2000A1206
:100D58008A116D250A128A113F30A0000030A100C7
:100D68001930A2008030A3000A128A110C250A1239
:100D78008A11842E8312891009111430F000003072
:100D8800F1000A128A1177240A128A1183120313B6
:100D980089146330F8007808F60038300A128A118E
:100DA80096240A128A110530F0000030F1000A1268
:100DB8008A1177240A128A116330F8007808F6003D
:100DC80038300A128A1196240A128A110130F0006A
:100DD8000030F1000A128A1177240A128A1163304E
:100DE800F8007808F60038300A128A1196240A1298
:100DF8008A116330F8007808F60008300A128A1160
:100E080096240A128A116330F8007808F6000F3029
:100E18000A128A1196240A128A116330F800780897
:100E2800F60001300A128A1196240A128A116330D8
:100E3800F8007808F60038300A128A1196240A1247
:100E48008A116330F8007808F60080300A128A1197
:100E58009624080083120313BB003130B300330813
:100E6800B6000130B007FF30300784000A128A113B
:100E78000D200A128A11B3003308BC003C0803197C
:100E8800F72F25303C060319552F3C08B3003B08C3
:100E980084003308831380000130B3003308BB0794
:100EA800352FB7010130B007FF30300784000A1230
:100EB8008A110D200A128A11BC00003A0319F72F73
:100EC800643A03196B2F0D3A03196B2F352F360827
:100ED800840083130008B900840A0008BA000230AD
:100EE800B3003308B607BA1F822F0330B3003308A4
:100EF800B704B909BA09B90A0319BA0ABC01BC0A84
:100F08003C08B3003307013E84000A128A110D2001
:100F18000A128A11B4000A128A110D200A128A11C3
:100F2800B50035083A02031D9B2F34083902031C0B
:100F3800A52F0130B3003308BC0705303C06031D5C
:100F4800842F370803390319B42F2D30B3003B0819
:100F580084003308831380000130B3003308BB07D3
:100F68003C08B3003308B800FF30B3003308B807B3
:100F7800380A0319352F0A30AA000030AB003808A8
:100F8800B3003307013E84000A128A110D200A12A9
:100F98008A11A2000A128A110D200A128A11A300CE
:100FA8003A08A5003908A4000A128A11DE250A1297
:100FB8008A112308AD002208AC000A128A113B25C9
:100FC8000A128A112A08303EB4003408BC003C08D2
:100FD800B3003B0884003308831380000130B3005A
:100FE8003308BB07B82F3B0884008313800108002F
:080FF80083010A128A11592E2F
:02400E003A3F37
:00000001FF
