:060000000A128A110E280D
:10000800FE00030EF5000408F6000A08F7000A12BD
:100018008A11D12E0A128A11112883160A128A15FA
:10002800B4240A128A11D8000A128A15B5240A12B1
:100038008A11D9000A128A15B6240A128A11DA001E
:100048000A128A15B7240A128A11DB000A128A15C5
:10005800B8240A128A11DC000A128A11FE270A1231
:100068008A11FC008313C8308400D8300A128A151C
:10007800D024F801F901FA01FB0183010A128A115F
:100088004528C33083168500FF30860080308700FE
:10009800880189010A128A1122270A128A110A1272
:1000A8008A15F0240A128A11BC01BD01B0308400FF
:1000B800580883138000840A59088000840A5A0863
:1000C8008000840A5B088000840A5C088000BE0106
:1000D800BF018312871483163E08031DDA285630A1
:1000E8008312CF004F08AB002F300A128A155D2605
:1000F8000A128A11C5300A128A156E250A128A1147
:100108008316C401C5010A128A1546250A128A11E6
:10011800CF0083164408B53E840083124F0883132A
:10012800800083164408B53E840000080A128A1528
:100138008A250A128A1101308316C4070318C50AD2
:100148000030C5074508803AFF0080307F02031D54
:10015800AF2804304402031C8728B03083120313ED
:10016800CF004F08A000B5300A128A150F260A12D0
:100178008A1120082104031DC7288316BE01BE0A60
:100188001E308312C8280B30AB008030AC000A1236
:100198008A1527250A128A113230A0000030A100E2
:1001A8000A128A15C8250A128A116F280730850095
:1001B8000A128A15E4240A128A110A128A15B92425
:1001C8000A128A118830AF001330B0000A128A115F
:1001D800DC240A128A110A128A15FD240A128A11CD
:1001E8000A128A15D8240A128A11FC01FC0A831201
:1001F80087163F300A128A1535250A128A117C089B
:100208000319032986191A2983163C083D04031D7E
:100218001A2903108312871E0314031C172983123B
:10022800031387161A2983120313871203108312E4
:10023800861D0314003003180130CF00D0014F0889
:100248008316BC00831250088316BD0066308312E3
:10025800B0000030B10000300A128A154D270A128A
:100268008A112108AB002008AA000A30AC0000302F
:10027800AD000A128A15A7250A128A112B08B300A5
:100288002A08B2000A128A1585270A128A1131082B
:100298008316C700831230088316C60064308312A1
:1002A800B0000030B100831647088312AB008316F4
:1002B80046088312AA00FF30AC000030AD000A12D5
:1002C8008A15A7250A128A112B08B3002A08B2003A
:1002D8000A128A1585270A128A1131088316BB006B
:1002E800831230088316BA003A080A128A112226A5
:1002F8000A128A116630B0000030B10001300A12CB
:100308008A154D270A128A112108AB002008AA0075
:100318000A30AC000030AD000A128A15A7250A126F
:100328008A112B08B3002A08B2000A128A158527F9
:100338000A128A1131088316C10083123008831605
:10034800C000CA308312B0000030B10002300A1277
:100358008A154D270A128A112108AB002008AA0025
:100368006430AC000030AD000A128A15A7250A12C5
:100378008A112B08B3002A08B2000A128A158527A9
:100388000A128A1131088316C300831230088316B3
:10039800C2004D308312CF004F08BE0083164308B9
:1003A8008312C000831642088312BF0083164708D1
:1003B8008312C200831646088312C10083164108BF
:1003C8008312C400831640088312C300C8300A127F
:1003D8008A11BF220A128A11A030CF004F08A0004C
:1003E800C8300A128A150F260A128A112008210419
:1003F8000319392AA0300A128A1558250A128A11B7
:100408002008CF002108D000C8300A128A155825C4
:100418000A128A1121085006031D142A20084F06C3
:100428000319222A01300A128A156E250A128A1126
:100438003F300A128A1535250A128A11C830AB00D6
:100448000030AC000A128A1527250A128A11C83012
:10045800CF004F08A0001030A1000030A200A0304B
:100468000A128A15E0260A128A1100308316410200
:100478001430031940020318B12A003047025130E2
:1004880003194602031CB12A00304302293003191C
:100498004202031CB12A8312871080308800831619
:1004A8003F08031DAD2A4C308312CF004F08BE0011
:1004B800831643088312C000831642088312BF00C4
:1004C800831647088312C200831646088312C100A8
:1004D800831641088312C400831640088312C300A0
:1004E800C8300A128A11BF220A128A11C8300A12A9
:1004F8008A1585260A128A110130AB000030AC003B
:10050800831646088312CF004F08AD000A128A11DD
:100518007F260A128A110230AB000030AC00831625
:1005280040088312CF004F08AD000A128A117F26B7
:100538000A128A110330AB000030AC00831642085F
:100548008312CF004F08AD000A128A117F260A12C3
:100558008A118316BF01BF0AB42ABF018312871408
:1005680014308312A0000030A1000A128A15C82591
:100578000A128A110329CD003F30C5004508C8007A
:100588000130BE07FF303E0784000A128A11632536
:100598000A128A11C5004508CE004E080319862B99
:1005A80025304E060319E42A4E08C5004D0884007C
:1005B8004508831380000130C5004508CD07C42ACB
:1005C800C9010130BE07FF303E0784000A128A11B4
:1005D80063250A128A11CE00003A0319862B643A61
:1005E8000319FA2A0D3A0319FA2AC42A480884007A
:1005F80083130008CB00840A0008CC000230C50031
:100608004508C807CC1F112B0330C5004508C9048D
:10061800CB09CC09CB0A0319CC0ACE01CE0A4E0865
:10062800C5004507013E84000A128A1163250A1293
:100638008A11C6000A128A1163250A128A11C70094
:1006480047084C02031D2A2B46084B02031C342B77
:100658000130C5004508CE0705304E06031D132B93
:10066800490803390319432B2D30C5004D08840070
:100678004508831380000130C5004508CD074E08A2
:10068800C5004508CA00FF30C5004508CA074A0A20
:100698000319C42A0A30B8000030B9004A08C50056
:1006A8004507013E84000A128A1163250A128A113D
:1006B800B0000A128A1163250A128A11B1004C0887
:1006C800B3004B08B2000A128A1585270A128A114C
:1006D8003108BB003008BA000A128A15AE260A1281
:1006E8008A113808303EC6004608CE004E08C500BC
:1006F8004D0884004508831380000130C500450873
:10070800CD07472B4D08840083138001080083120E
:1007180003130810881408158815A001A1010130D9
:1007280083120313A0070318A10A0030A1072108A8
:10073800803AFF0080307F02031DA42B0530200281
:10074800031C932B83120313061C0818AF2B061CDB
:10075800AB2B2A300800861C0818B62B861CB22B37
:1007680030300800061D0818BD2B061DB92B233094
:1007780008000814881008158815A201A301013083
:1007880083120313A2070318A30A0030A307230840
:10079800803AFF0080307F02031DD42B05302202EF
:1007A800031CC32B83120313061C8818DF2B061C9B
:1007B800DB2B37300800861C8818E62B861CE22BBA
:1007C80038300800061D8818ED2B061DE92B393036
:1007D80008000814881408118815A401A50101301F
:1007E80083120313A4070318A50A0030A5072508D8
:1007F800803AFF0080307F02031D042C053024025C
:10080800031CF32B83120313061C08190F2C061C58
:100818000B2C34300800861C0819162C861C122C48
:1008280035300800061D08191D2C061D192C3630F8
:1008380008000814881408158811A601A7010130BA
:1008480083120313A6070318A70A0030A70727086F
:10085800803AFF0080307F02031D342C05302602C9
:10086800031C232C83120313061C88193F2C061C17
:100878003B2C31300800861C8819462C861C422CDB
:1008880032300800061D88194D2C061D492C3330BE
:10089800080078300800AA01A31F5F2CA009A1094D
:1008A800A209A309A00A0319A10A0319A20A031994
:1008B800A30AAA01AA0AA71F702CA409A509A609B8
:1008C800A709A40A0319A50A0319A60A0319A70A5E
:1008D8000130A8002808AA060030AE000030AD009C
:1008E8000030AC000030AB002308220421042004AF
:1008F8000319C52CA901A90AA31B902C0130A80033
:100908000310A00DA10DA20DA30DA80B842C01307E
:10091800A8002808A907802C0130A8000310AB0DF7
:10092800AC0DAD0DAE0DA80B922C23082702031DAC
:10093800A72C22082602031DA72C21082502031D27
:10094800A72C20082402031CB82C2008A402210884
:10095800031C210FA5022208031C220FA60223084C
:10096800031C230FA7022B1401300310A30CA20CA5
:10097800A10CA00CFF3E031DB92C0130A902031DD8
:10098800902C2A080319D32CAB09AC09AD09AE0980
:10099800AB0A0319AC0A0319AD0A0319AE0A2E08EB
:1009A800A3002D08A2002C08A1002B08A000080015
:1009B8009701831607158816831207118812950167
:1009C80012112F08B1003008B200B301B40102308F
:1009D8000310B10DB20DB30DB40DFF3E031DEC2C89
:1009E8003408A3003308A2003208A1003108A0008F
:1009F8000030A7003D30A6000930A5000030A40053
:100A08000A128A114F240A128A112108B6002008F6
:100A1800B500013036020030031935020318182DCD
:100A2800FC30920535083C2D3608B2003508B10077
:100A38000310B20CB10C0310B20CB10C013032022D
:100A480000300319310203183E2D1208FC39013811
:100A580092003508023EB10036080318013E003EF8
:100A6800B2000310B20CB10C0310B20CB10C310877
:100A78008316542D3508083EB10036080318013E88
:100A8800003EB20004300310B20CB10CFF3E031D4F
:100A9800472D31088316920083121208FC39023858
:100AA80092008730831292050800FF1B632D831381
:100AB8007F1883170008840A0319FF0A0800053005
:100AC8008A000408840A82070034013400340A3496
:100AD800003464340034E834033410342734503498
:100AE80061347334733477346F347234643420343B
:100AF80069346E3463346F347234723465346334F9
:100B080074340034503461347334733477346F344C
:100B180072346434203463346F347234723465341C
:100B2800633474340034573465346134743468344D
:100B38006534723420345334743461347434693411
:100B48006F346E340034543465346D3470342F345B
:100B5800463461346E342F34483475346D3400347F
:100B68006534253464342F34253464342F342534E3
:100B78006434003450346134733473343A34003498
:100B88000030B9000030B8000030B7000030B600BF
:100B980030082F042E042D040319192EBA01BA0A9D
:100BA800B01BE42D0130B5000310AD0DAE0DAF0D37
:100BB800B00DB50BD82D0130B5003508BA07D42DC6
:100BC8000130B5000310B60DB70DB80DB90DB50B52
:100BD800E62D30083402031DFB2D2F083302031DB8
:100BE800FB2D2E083202031DFB2D2D083102031C9C
:100BF8000C2E2D08B1022E08031C2E0FB2022F084E
:100C0800031C2F0FB3023008031C300FB402361434
:100C180001300310B00CAF0CAE0CAD0CFF3E031D41
:100C28000D2E0130BA02031DE42D3908B000380832
:100C3800AF003708AE003608AD0008008312C100C7
:100C48000030B0000030AF000030AE00FF30AD0023
:100C58004108BB00BC01BD01BE013E08A3003D0820
:100C6800A2003C08A1003B08A000831612088312CA
:100C7800BF00C0010310BF0DC00D0310BF0DC00D94
:100C880003303F04A40000304004A500A601A51BC2
:100C9800A6032608A7000A128A15C1270A128A1174
:100CA8002308B4002208B3002108B2002008B100CC
:100CB8000A128A11C4250A128A112E08C3002D08A7
:100CC800C2004308BC004208BB000310BC0CBB0CAC
:100CD8000310BC0CBB0C3B08950042080339BB0051
:100CE80003300310BB0DFF3E031D752E03103B0D93
:100CF8000F38970008002D08AE00AF012E08B3008A
:100D08002F08B4002C080139AE002E08B0002B08BB
:100D1800AE002E08B100B2010A128A150B250A127C
:100D28008A1183120313300803199C2EA2309D2EBA
:100D3800A0300A128A1515270A128A1131080A12D8
:100D48008A1515270A128A1133080A128A151527D7
:100D58000A128A110A128A1519250A128A110130F3
:100D680083120313AE002E08B2072C08A6002B0826
:100D7800A5000A128A1170270A128A11AE00AF0163
:100D880034082F06031DCA2E33082E06031908003F
:100D98000A30320203180800902E831203130C1C29
:100DA800FB2E0C10CF308F002C308E000A307A06C4
:100DB8007B04031DF52E0130F8070318F90A0030EB
:100DC800F907FA01FB01333078067904031DFB2E7D
:100DD800C8300A128A1535260A128A11F801F90153
:100DE800FB2E0130FA070318FB0A0030FB078B1CA7
:100DF800192F8B107C0803190B2F871287140711E2
:100E080097019001F801F901FA01FB01102F8716EB
:100E18000F309700313090007C08031D152F0130EA
:100E2800162F0030F4007408FC0077088A00760852
:100E38008400750E8300FE0E7E0E09008312891051
:100E480009111430A0000030A1000A128A15C82523
:100E58000A128A11891438300A128A156E250A1264
:100E68008A110530A0000030A1000A128A15C82591
:100E78000A128A1138300A128A156E250A128A1146
:100E88000130A0000030A1000A128A15C8250A12F4
:100E98008A1138300A128A156E250A128A1108300A
:100EA8000A128A156E250A128A110F300A128A153B
:100EB8006E250A128A1101300A128A156E250A1245
:100EC8008A1138300A128A156E250A128A11803062
:100ED8000A128A156E25080026080139A700270876
:100EE800AA002508A7002708A9000A128A150B25B9
:100EF8000A128A11831203132A080319852FA230B4
:100F0800862FA0300A128A1515270A128A11290875
:100F18000A128A1515270A128A110A128A150B2530
:100F28000A128A11831203132A0803199D2FA3306A
:100F38009E2FA1300A128A1515270A128A1101302C
:100F48000A128A11B3270A128A11A7002708A800D3
:100F58000A128A1519258312031328080800A2000B
:100F6800A30187118316071683120716A401871594
:100F78000A128A11F5270A128A1183120313070E1F
:100F88000139A0002408073C013ECC2F0310A00D16
:100F9800FF3E031DCA2F2008A1002108A3048711C2
:100FA8000130A0002008A40708302402031CBB2F2E
:100FB80083160712831222080319E42F0712E52F5C
:100FC80007160A128A11F5270A128A1183120313C7
:100FD80087150A128A11F52783120313871123082C
:100FE80008000000000000000000000000000000F1
:060FF800000008000134B6
:10196000A00020088800080030343834363432347F
:101970000034023083169F00413083129F0008001C
:10198000F000700883129900831698180800C42C80
:101990008312A00020089900831698180800CC2C08
:1019A00064008001840A0406031900340406D12C63
:1019B00031309000CF308F002C308E008B17831683
:1019C0000C140B170B1608006730990018139816A3
:1019D0001812181583129817181318168C1208006D
:1019E00088018601831688010F3086007F308312BC
:1019F000A0002008831681050800831607118812AD
:101A00000F308312970012158C108C1C052D8C1032
:101A10008C180800082D871507160A128A11F52759
:101A20000A128A158312031307120A128A11F52764
:101A30000800871507120A128A11F5270A128A155B
:101A40008312031307160A128A11F5270800C03003
:101A50000A128A156E250A128A152B08A7002C086F
:101A6000A8000A128A15E9250800AB0080300A1286
:101A70008A156E250A128A152B08A7000030031D4F
:101A80008030A8000A128A15E925080078308312F0
:101A90000313A8002808A90078302906031D562D35
:101AA0000A128A118B230A128A15492D2908080067
:101AB000A4002408A2002208A30023088400000830
:101AC0000319672D0130A2002208A3075D2D240809
:101AD0002302A000A101A01BA1030800A6008914F5
:101AE00026080A128A15B0240A128A150911033031
:101AF000A0000030A1000A128A15C8250A128A1512
:101B000089100330A0000030A1000A128A15C825F0
:101B1000891408008312A600891426080A128A155F
:101B2000B0240A128A1509150330A0000030A10064
:101B30000A128A15C8250A128A1589100330A000D6
:101B40000030A1000A128A15C82589140800AE01C8
:101B5000AF012A1CB12D2C08AE070318AF0A2D08BF
:101B6000AF0701300310AC0DAD0DFF3E031DB22DCC
:101B700001300310AB0CAA0CFF3E031DB92D2A083F
:101B80002B04031DA92D2F08AB002E08AA00080066
:101B9000A301A40121082402031DD02D2008230243
:101BA00003180800A501000000000000000000006C
:101BB000013083120313A2002208A507C8302502B2
:101BC000031CD32D0130A3070318A40A0030A40777
:101BD000CA2DAA012A082707840028080318280A02
:101BE000FF000A128A1159250A128A15003A0319B0
:101BF00008002A082707840028080318280AFF007D
:101C00000A128A1159250A128A150A128A158A257A
:101C10000A128A150130A9002908AA07EA2DA60090
:101C20001E2E26088400000803192F2E0130A20062
:101C30002208A6070130A2002208A007200884007D
:101C400083130008A200260884000008A3002208CD
:101C50002302A4002408A50025080319112E250835
:101C6000A000A101A01BA1030800F200F30173086A
:101C70007207F10071088400831300080319502EC5
:101C800073087207F1007108840000080A128A15AF
:101C9000C0240A128A150130F1007108F307372EAB
:101CA0000A300A128A15C0240A128A150D300A1247
:101CB0008A15C02483128C120800AC0001300A126D
:101CC0008A156E250A128A1580300A128A156E2529
:101CD0000A128A152C08A7000030031D8030A800C6
:101CE0000A128A15E9250A128A15C0300A128A15C5
:101CF0006E250A128A152B08A7000030031D8030BC
:101D0000A8000A128A15E9250800A300A2012208EA
:101D10002307A10021088400831300080319A12EC2
:101D200022082307A1002108840000080A128A154E
:101D3000C8240A128A1501308312A1002108A207C3
:101D4000872E0A300A128A15C8240A128A150D3005
:101D50000A128A15C82483128C1208003808390424
:101D60000319DB2EBD01BD0AB91BC22E01300310C1
:101D7000B80DB90DFF3E031DB72E0130BC003C0865
:101D8000BD07B42E39083B02031DC82E38083A029D
:101D9000031CD02E3808BA023908031CBB03BB024F
:101DA00001300310B90CB80CFF3E031DD12E0130D9
:101DB000BD02031DC22E3B08B9003A08B800080056
:101DC000A4002408A3002308A50021082204031965
:101DD000082F0130A1020030031CA203A202200838
:101DE00084000130A00783130008A30025088400A5
:101DF0000130A5072308800000080319082FE52EED
:101E000025088400831380010130A3002308A5075F
:101E10000130A1020030031CA203A202210A031D0B
:101E2000002F220A03190800002FA2008711A30126
:101E30002208A0002308073C013E202F0310A00C1D
:101E4000FF3E031D1E2F20080139A100A10E070827
:101E50002106EF392106870087150A128A11F52716
:101E60000A128A158312031387110130A00020087B
:101E7000A30708302302031C182F07160A128A1121
:101E8000F5270A128A158312031387150A128A117D
:101E9000F5278312031387110800A900562F01307C
:101EA000542F0930542F11309F00612F2908003A18
:101EB00003194F2F013A0319512F033A0319532FD6
:101EC000612F1F151F19622F83161E088312A2008F
:101ED00006300310A20CFF3E031D692F2208A30049
:101EE000A4011E08A500A6010310A50DA60D031050
:101EF000A50DA60D23082504A70024082604A80084
:101F00002708A0002808A1000800B501B601300884
:101F100031040319BC2FB701B70AB11B9B2F013045
:101F20000310B00DB10DFF3E031D902F0130B40022
:101F30003408B7078D2F01300310B50DB60DFF3EE5
:101F4000031D9C2F31083302031DA82F30083202D5
:101F5000031CB12F3008B2023108031CB303B302D3
:101F6000351401300310B10CB00CFF3E031DB22F2D
:101F70000130B702031D9B2F3608B1003508B000B1
:101F800008000030AC000030AB000030AA00003088
:101F9000A900201CDF2F2408A90725080311031816
:101FA000013E031DAA07260803110318013E031D65
:101FB000AB07270803110318013E031DAC070130CE
:101FC000A8000310A40DA50DA60DA70DA80BE12FC9
:101FD00001300310A30CA20CA10CA00CFF3E031DAA
:101FE000E92F2308220421042004031DC92F2C08F3
:101FF000A3002B08A2002A08A1002908A0000800BD
:02400E003A3F37
:00000001FF
