:060000000A128A11122809
:10000800FE00030E83120313B1000408B2000A08AD
:10001800B3007F08B4000A128A153B2E0A128A110F
:10002800152883160A168A11BB270A128A11C300DB
:100038000A168A11BC270A128A11C4000A168A11E4
:10004800BD270A128A11C5000A168A11BE270A128C
:100058008A11C6000A168A11BF270A128A11C70018
:1000680083120A128A11FE260A128A11DA008317ED
:10007800BA308400E2300A168A11DC270A128A1183
:1000880083134B3084005A300A168A11DC27830107
:100098000A128A114F28C33083168500FF30860064
:1000A80080308700880189010A128A15CD250A1235
:1000B8008A110A128A153D200A128A11831603171B
:1000C800A701A8011430AB000030AC002830AD0007
:1000D8000030AE005030AF000030B00090308400E7
:1000E8000313430883178000840A44088000840AA5
:1000F80045088000840A46088000840A4708800072
:100108000317A901AA01831203138714831603177F
:100118002908031D1229EF3083120313C100873009
:10012800C2001C30C3008830C4000A128A15CD21D1
:100138000A128A1163308316BD003D088312BB0082
:10014800C5300A128A1532210A128A11831603173A
:10015800B601B7010A128A154E200A128A118316AF
:10016800BD0003173608A03E840003133D0883171B
:1001780080006430BD003D088312BB00831603175E
:100188003608A03E840000080A128A1532210A1295
:100198008A11013083160317B6070318B70A00300F
:1001A800B7073708803AFF0080307F02031DDE283A
:1001B80004303602031CAE28A03083120313B500A6
:1001C8000130B60090308316BD003D088312B70099
:1001D8000A128A15A0210A128A1135083604031D4D
:1001E800FF2883160317A901A90ADE308312031317
:1001F800C10087300229CB30C1008730C2000A1203
:100208008A1572200A128A113230B5000030B60001
:100218000A128A1511210A128A118A280730031333
:1002280085000A168A11E4270A128A110A168A1109
:10023800C0270A128A11E8308312C4000330C500AF
:100248000A128A15EC230A128A110A168A11C6277D
:100258000A128A110A128A1522200A128A11831296
:10026800DA01DA0A8716FF30C1008730C2000A12A5
:100278008A1560200A128A115A080319402986191A
:1002880059298316031727082804031D5929031021
:1002980083120313871E0314031C562983120313A6
:1002A8008716592983120313871203108312031325
:1002B800861D03140030031801308316BD00BE01EB
:1002C8003D080317A70003133E080317A80066306C
:1002D80083120313C5000030C60000300A128A15C5
:1002E80000230A128A113608C0003508BF000A30F8
:1002F800C1000030C2000A128A15F0200A128A11C1
:100308004008C8003F08C7000A128A15B3240A1219
:100318008A11460883160317B90083120313450888
:1003280083160317B800643083120313C500003026
:10033800C60083160317390883120313C0008316F7
:100348000317380883120313BF00FF30C1000030C1
:10035800C2000A128A15F0200A128A114008C80041
:100368003F08C7000A128A15B3240A128A114608E0
:1003780083160317A6008312031345088316031771
:10038800A50025080A128A155F250A128A11663007
:10039800C5000030C60001300A128A1500230A126F
:1003A8008A113608C0003508BF000A30C100003085
:1003B800C2000A128A15F0200A128A114008C800E1
:1003C8003F08C7000A128A15B3240A128A11460880
:1003D80083160317B3008312031345088316031704
:1003E800B200CA3083120313C5000030C6000230C1
:1003F8000A128A1500230A128A113608C000350825
:10040800BF006430C1000030C2000A128A15F02013
:100418000A128A114008C8003F08C7000A128A1544
:10042800B3240A128A11460883160317B5008312EB
:100438000313450883160317B4004F300313A800AD
:100448000030A9003630AA008730AB000317350802
:100458000313AD00031734080313AC00031739085E
:100468000313AF00031738080313AE00031733084C
:100478000313B100031732080313B0000A128A11DC
:1004880010240A128A114F308312B5000030B600CA
:1004980095308316BD003D088312B7000A128A15ED
:1004A800A0210A128A11350836040319AA2A9530A0
:1004B800B5000130B6000A128A15B5200A128A1151
:1004C80035088316BD00831236088316BE004F30E8
:1004D8008312B5000030B6000A128A15B5200A1238
:1004E8008A11360883163E06031D7E2A83123508B4
:1004F80083163D060319942A6330BD003D08831214
:10050800BB0001300A128A1532210A128A11FF3003
:10051800C1008730C2000A128A1560200A128A11A7
:100528004F308312C1000030C2000A128A157220AF
:100538000A128A114F308316BD003D088312B50098
:1005480095300A128A159A200A128A1183160317FF
:100558002C083302031DB22A2B0832020318382B49
:1005680039083002031DBA2A38082F020318382B1D
:1005780035082E02031DC22A34082D020318382B11
:1005880083120313871080308800831603172A0804
:10059800031D332BBA300313A8000130A900B8306B
:1005A800AA008730AB00031735080313AD00031703
:1005B80034080313AC00031739080313AF000317FB
:1005C80038080313AE00031733080313B1000317E9
:1005D80032080313B0000A128A1110240A128A1171
:1005E800BA308312B6000130B7000A128A15962273
:1005F8000A128A110130C2000030C30083160317A3
:1006080034080313BD003D088312C4000A128A157A
:10061800FD240A128A1102308312C2000030C3007E
:100628008316031738080313BD003D088312C4005E
:100638000A128A15FD240A128A1103308312C20095
:100648000030C3008316031732080313BD003D08AA
:100658008312C4000A128A15FD240A128A1183160D
:100668000317AA01AA0A3C2BAA01831203138714B1
:10067800831203138C1E042CB1300A128A15CA2265
:100688000A128A118C12F42B013083120313BC0056
:100698000030BD000A128A1570240A128A11FF3A26
:1006A8000319A22BBA308316A8000130A9001C3008
:1006B800AA008730AB0001308312BC000030BD00B7
:1006C8000A128A1570240A128A118316BD00BE0107
:1006D8003D08AC003E08AD0002308312BC0000307B
:1006E800BD000A128A1570240A128A118316BF00E7
:1006F800C0013F08AE004008AF0003308312BC00C1
:100708000030BD000A128A1570240A128A11831655
:10071800C100C2014108B0004208B1000A128A11A2
:1007280010240A128A11BA308312B6000130B700B9
:100738000A128A1596220A128A11042C3F30B60032
:100748008730B7000A128A1596220A128A11042CD9
:100758000A30AB000030AC003230AD000030AE00E3
:100768005A30AF000030B0005E3083120313B60079
:100778008730B7000A128A1596220A128A11042CA9
:100788001430AB000030AC002830AD000030AE00B3
:100798005030AF000030B0007C3083120313B60035
:1007A8008730B7000A128A1596220A128A11042C79
:1007B8001E30AB000030AC001E30AD000030AE0083
:1007C8004630AF000030B0009A3083120313B600F1
:1007D8008730B7000A128A1596220A128A11042C49
:1007E800831603173108613A0319AC2B033A03192E
:1007F800C42B013A0319DC2B0B3A0319482B042CA0
:10080800143083120313B5000030B6000A128A159B
:1008180011210A128A114029AC30B2003208B700FF
:1008280083162B08B3002A08B200AA0A0319AB0AD8
:1008380033088312FF0083163208840083120A12D9
:100848008A1100270A128A118316B4003408BC00E2
:100858003C080319542D25303C060319432C3C0849
:10086800B200280884008317291C831332088000EB
:100878000130A8070318A90A0030A907142CB501EC
:100888008A2C3708840083130008B8000030B900A8
:100898000130B2003208B70738083904031D582C54
:1008A8001530B8008830B90039088312FF00831664
:1008B8003808840083120A128A1100270A128A1142
:1008C800003A0319142C831639088312FF00831683
:1008D8003808840083120A128A1100270A128A1122
:1008E8008316B200280884008317291C8313320852
:1008F80080000130B8070318B90A0030B907013081
:10090800A8070318A90A0030A907582C2B08B30018
:100918002A08B200AA0A0319AB0A33088312FF0097
:1009280083163208840083120A128A1100270A12D9
:100938008A118316BC00003A0319542D643A03192E
:10094800AC2C0D3A0319AC2C1A3A0319452C142C6B
:100958003708840083130008BA00840A0008BB0023
:100968000230B2003208B707BB1FC32C0330B200F5
:100978003208B504BA09BB09BA0A0319BB0ABC0193
:10098800BC0A3C08B2003207123E840087300318C4
:10099800013E8312FF000A128A1100270A128A11E7
:1009A8008316B30083120A128A1100270A128A11C9
:1009B8008316B40034083B02031DE42C33083A02C2
:1009C800031CEE2C0130B2003208BC0705303C068F
:1009D800031DC52C350803390319012D2D30B2002C
:1009E800280884008317291C8313320880000130EB
:1009F800A8070318A90A0030A9073C08B200320862
:100A0800B600FF30B2003208B607360A0319142CB4
:100A18000A30A3000030A4003608B2003207123EA4
:100A2800840087300318013E8312FF000A128A11DE
:100A380000270A128A11C5000A128A1100270A1211
:100A48008A11C60083163B088312C80083163A0829
:100A58008312C7000A128A15B3240A128A1146089B
:100A68008316A600831245088316A5000A128A1564
:100A780062220A128A112308303EB3003308BC00F0
:100A88003C08B200280884008317291C8313320805
:100A980080000130A8070318A90A0030A907052D0E
:100AA800280884008317291C831380010800243038
:100AB800A5002508AA002308A6002208A500A20A66
:100AC8000319A30A2608FF00250884000A128A11C0
:100AD80000270A128A11A7002708AF002F08031958
:100AE800862E25302F060319892D2F08A5002008EA
:100AF80084008317211C8313250880000130A00778
:100B08000318A10A0030A1075F2DA801C82D2A08E3
:100B1800840083130008AB000030AC000130A5004E
:100B28002508AA072B082C04031D9E2D1530AB00A1
:100B38008830AC002C08FF002B0884000A128A11A8
:100B480000270A128A11003A03195F2D2C08FF00AA
:100B58002B0884000A128A1100270A128A11A5009C
:100B6800200884008317211C831325088000013086
:100B7800AB070318AC0A0030AC070130A007031814
:100B8800A10A0030A1079E2D2308A6002208A5006F
:100B9800A20A0319A30A2608FF00250884000A12DE
:100BA8008A1100270A128A11AF00003A0319862E0B
:100BB800643A0319E62D0D3A0319E62D1A3A03197A
:100BC8008B2D5F2D2A08840083130008AD00840A4A
:100BD8000008AE000230A5002508AA07AE1FFD2DAB
:100BE8000330A5002508A804AD09AE09AD0A03190C
:100BF800AE0AAF01AF0A05302F060319282E2F08B9
:100C0800A5002507123E840087300318013EFF0027
:100C18000A128A1100270A128A11A6000A128A11DA
:100C280000270A128A11A70027082E02031D1E2E6C
:100C380026082D02031C282E0130A5002508AF0721
:100C480005302F06031D032E2808033903193B2EF0
:100C58002D30A500200884008317211C8313250844
:100C680080000130A0070318A10A0030A1072F084F
:100C7800A5002508A900FF30A5002508A907290A0D
:100C880003195F2D0A30F8000030F9002908A50083
:100C98002507123E840087300318013EFF000A1220
:100CA8008A1100270A128A11F0000A128A110027F5
:100CB8000A128A11F1002E08F3002D08F2000A1218
:100CC8008A1571230A128A117108FB007008FA004C
:100CD8000A128A15FC210A128A117808303EA600E9
:100CE8002608AF002F08A500200884008317211CC0
:100CF8008313250880000130A0070318A10A0030DB
:100D0800A1073F2E200884008317211C831380012C
:100D1800080000308316A3000030A2000030A100B4
:100D28000030A00083124508440443044204031918
:100D3800ED2E8316A401A40A8312C51BB22E01301E
:100D4800CA000310C20DC30DC40DC50DCA0BA52ED4
:100D58000130CA004A088316A407A02E0130831266
:100D6800CA0003108316A00DA10DA20DA30D8312B6
:100D7800CA0BB52E45084902031DCC2E440848026B
:100D8800031DCC2E43084702031DCC2E4208460201
:100D9800031CDE2E4208C6024308031C430FC70289
:100DA8004408031C440FC8024508031C450FC90228
:100DB80083162014013003108312C50CC40CC30C15
:100DC800C20CFF3E031DDF2E01308316A402031D53
:100DD800B22E831623088312C500831622088312B5
:100DE800C400831621088312C300831620088312C7
:060DF800C20008000134F6
:100E0000FF1B0A2F83137F1883170008840A031916
:100E1000FF0A08007F087F398A000408840A031942
:100E2000FF0A8200013400340A3400346434003490
:100E3000E8340334103427346C346134733474343C
:100E400020347234653467346934733474346534EF
:100E5000723465346434203465346D3465347234EE
:100E6000673465346E346334793420342534643423
:100E70002F34253464342F342534643400346534FD
:100E80006D3465347234673465346E346334693478
:100E90006534733420346E346F34743420347234D7
:100EA000653467346934733474346534723465344A
:100EB00064342034793465347434003465346D34EA
:100EC00065347234673465346E3463347934203475
:100ED0006334683461346E34673465346434203488
:100EE00074346F3420346F347034743469346F3434
:100EF0006E3420344134003465346D3465347234DA
:100F0000673465346E346334793420346334683440
:100F100061346E34673465346434203474346F342F
:100F200020346F347034743469346F346E34203448
:100F30004234003465346D3465347234673465345A
:100F40006E346334793420346334683461346E34FD
:100F5000673465346434203474346F3420346F342F
:100F60007034743469346F346E3420344334003454
:100F700065346D3465347234673465346E3463348B
:100F800079342D34253464342F34253464342F34AB
:100F9000253464340034503461347334733477341A
:100FA0006F3472346434203469346E3463346F3493
:100FB00072347234653463347434003450346134C0
:100FC0007334733477346F3472346434203463345C
:100FD0006F3472347234653463347434003457348B
:100FE0006534613474346834653472342034533475
:100FF00074346134743469346F346E34003454346E
:1010000065346D3470342F34573469346E3464343D
:101010002F34483475346D34003431346D346934D0
:101020006E342D3425347334003428346E347534E2
:101030006C346C3429340034503461347334733478
:101040003A34003431309000CF308F002C308E0095
:101050008B1783160C140B170B16080083128715B9
:1010600007160A128A1584200A128A15831203139E
:1010700007120A128A1584200800831608108810A7
:101080000811881106148614061583128815081590
:101090008814081406148614061508007830831284
:1010A0000313BD003D08BE0078303E06031D5E28D8
:1010B0000A128A153C270A128A1551283E08080090
:1010C0006330C3004308BB0080300A128A15322106
:1010D0000A128A154108BD004208BE000A128A158C
:1010E000762108006330C3004308BB00C0300A12F9
:1010F0008A1532210A128A154108BD004208BE0035
:101100000A128A1576210800B501B6010130831252
:101110000313B5070318B60A0030B6073608803A3D
:10112000FF0080307F02031D972805303502031829
:1011300008008628B7003708B6003608B80035081A
:10114000840083130008B60038088400360883172B
:1011500080000008031908000130B6003608B807FF
:101160000130B6003608B5079F283508B7003608A5
:10117000B800370884008317381C8313000803194C
:10118000C8280130B7070318B80A0030B807B928D3
:1011900035083702B5003608031C360A3802B60097
:1011A0000800F301F40171087402031DD9287008C6
:1011B000730203180800F5010000000000000000A1
:1011C00000000130F2007208F507C8307502031CF8
:1011D000DC280130F3070318F40A0030F407D328A1
:1011E000C301C4013F1CFA284108C3070318C40AFD
:1011F0004208C40701300310C10DC20DFF3E031D9C
:10120000FB2801300310C00CBF0CFF3E031D022958
:101210003F084004031DF2284408C0004308BF00F3
:101220000800B801B90136083902031D192935082B
:10123000380203180800BA01000000000000000096
:101240000000013083120313B7003708BA07C83013
:101250003A02031C1C290130B8070318B90A0030F0
:10126000B907132983120313BC0089143C088800B2
:1012700063303B060319091164303B060319091555
:101280000330B5000030B6000A128A1511210A1287
:101290008A1589100330B5000030B6000A128A158D
:1012A000112189140800F700891477088800633039
:1012B00076060319091164307606031909150330FF
:1012C000F0000030F1000A128A15D1200A128A15A6
:1012D0008312031389100330F0000030F1000A126A
:1012E0008A15D1208312031389140800C001400815
:1012F0003D0784003E0803183E0AFF000A128A11C7
:1013000000270A128A15003A031908006430BF004A
:101310003F08BB0040083D0784003E0803183E0A12
:10132000FF000A128A1100270A128A150A128A156A
:1013300032210A128A150130BF003F08C007772901
:10134000B329350884008317361C8313000803195A
:10135000C7290130B5070318B60A0030B6070130B7
:10136000B8003808B7073708840083170008B800AA
:10137000350884008317361C83130008B900380829
:101380003902BA003A08BB003B080319A1293B08FF
:10139000B500B601B51BB60308006330C5004508AB
:1013A000BB0001300A128A1532210A128A156330F5
:1013B000C5004508BB0080300A128A1532210A1286
:1013C0008A154108BD004208BE000A128A1576211E
:1013D0000A128A156330C5004508BB00C0300A12E6
:1013E0008A1532210A128A154308BD004408BE003E
:1013F0000A128A1576210800780879040319292A27
:10140000FD01FD0AF91B102A01300310F80DF90D3A
:10141000FF3E031D052A0130FC007C08FD07022A5F
:1014200079087B02031D162A78087A02031C1E2AFB
:101430007808FA027908031CFB03FB020130031051
:10144000F90CF80CFF3E031D1F2A0130FD02031D9D
:10145000102A7B08F9007A08F8000800F4017408E3
:101460007107840072080318720A8312FF000A12BF
:101470008A1100270A128A15003A0319552A74089E
:101480007107840072080318720AFF000A128A1199
:1014900000270A128A150A168A11CC270A128A1501
:1014A0000130F3007308F4072F2A0A300A168A1154
:1014B000CC270A128A150D300A168A11CC278312FE
:1014C0008C120800230824040319912AA701A70AF3
:1014D000A41B782A01300310A30DA40DFF3E031DA9
:1014E0006B2A01308312CA004A088316A707682AAC
:1014F00024082602031D7E2A23082502031C862AAF
:101500002308A5022408031CA603A6020130031029
:10151000A40CA30CFF3E031D872A0130A702031D64
:10152000782A2608A4002508A3000800B901390874
:101530003607840037080318370AFF000A128A1199
:1015400000270A128A15003A0319BD2A39083607FE
:10155000840037080318370AFF000A128A1100278F
:101560000A128A150A168A11D4270A128A1501301E
:101570008312B8003808B907972A0A300A168A1168
:10158000D4270A128A150D300A168A11D42783121D
:101590008C120800B700B901BA01B901BA01EC2AEE
:1015A0000A3038060319F82A0D3038060319F82ACC
:1015B0003808B50039083707B60036088400350802
:1015C000831780000130B9070318BA0A0030BA0740
:1015D00039083A04031DF82A0A168A11B7270A1295
:1015E0008A15B5003508B8008C123808031DD02ABA
:1015F00039083707B50035088400831780010800D3
:10160000BE00092B0130072B0930072B11309F003A
:10161000142B3E08003A0319022B013A0319042B3C
:10162000033A0319062B142B1F151F19152B8316AC
:101630001E088312B70006300310B70CFF3E031DCF
:101640001C2B3708B800B9011E08BA00BB010310F3
:10165000BA0DBB0D0310BA0DBB0D38083A04BC001F
:1016600039083B04BD003C08B5003D08B600080041
:101670008312B9008711BA013908B7003A08073C4C
:10168000013E442B0310B70CFF3E031D422B3708CD
:101690000139B800B80E07083806EF393806870058
:1016A00087150A128A1584200A128A1583120313D9
:1016B00087110130B7003708BA0708303A02031C17
:1016C0003C2B07160A128A1584200A128A158312E7
:1016D000031387150A128A158420831203138711B6
:1016E0000800F501F601700871040319A82BF70131
:1016F000F70AF11B872B01300310F00DF10DFF3EAF
:10170000031D7C2B0130F4007408F707792B01309E
:101710000310F50DF60DFF3E031D882B71087302B3
:10172000031D942B70087202031C9D2B7008F2029B
:101730007108031CF303F302751401300310F10C5C
:10174000F00CFF3E031D9E2B0130F702031D872B7B
:101750007608F1007508F00008000030C100003084
:10176000C0000030BF000030BE00351CCB2B390854
:10177000BE073A0803110318013E031DBF073B08CB
:1017800003110318013E031DC0073C080311031891
:10179000013E031DC1070130BD000310B90DBA0D94
:1017A000BB0DBC0DBD0BCD2B01300310B80CB70C1D
:1017B000B60CB50CFF3E031DD52B38083704360494
:1017C0003504031DB52B4108B8004008B7003F0899
:1017D000B6003E08B500080097018316071583126E
:1017E0000711950112111208FC39013892004508C1
:1017F000C7004408C6000310C60DC70D0310C60D70
:10180000C70D0310C60DC70D0310C60DC70D460842
:10181000B5004708B600B701B8010030BC003D3044
:10182000BB000930BA000030B9000A128A15AF2691
:101830000A128A153508FF3E8316920087308312FC
:101840009205831607110F308312970012158C1022
:101850008C1C282C8C108C1808002B2CB900BA0179
:1018600087118316071683120716BB0187150A1204
:101870008A1584200A128A1583120313070E013970
:10188000B7003B08073C013E472C0310B70DFF3E55
:10189000031D452C3708B8003808BA0487110130F9
:1018A000B7003708BB0708303B02031C362C8316F1
:1018B00007128312390803195F2C0712602C0716D0
:1018C0000A128A1584200A128A15831203138715B7
:1018D0000A128A1584208312031387113A0808001C
:1018E0003D080139BE003E08C1003C08BE003E086C
:1018F000C0000A128A152E200A128A1583120313B9
:1019000041080319852CA230862CA0300A128A15B2
:1019100038230A128A1540080A128A1538230A1237
:101920008A150A128A152E200A128A1583120313A9
:10193000410803199D2CA3309E2CA1300A128A1550
:1019400038230A128A1501300A128A152E240A1227
:101950008A15BE003E08BF000A168A11F2278312BC
:1019600003133F0808008316A101A2018312450852
:1019700046040319F42C8316A001A00A8312C61B87
:10198000CE2C01300310C50DC60DFF3E031DC22C29
:101990000130C90049088316A007BE2C0130831608
:1019A0000310A10DA20DFF3E031DD02C831246088B
:1019B0004802031DDD2C45084702031CE72C45089F
:1019C000C7024608031CC803C8028316211401304D
:1019D00083120310C60CC50CFF3E031DE92C013019
:1019E0008316A002031DCE2C831622088312C60084
:1019F000831621088312C50008004408C500C601EB
:101A000045088316A300831246088316A400831298
:101A100043080139C50045088316A0008312420817
:101A2000C50045088316A100A2010A128A152E20BE
:101A30000A128A158316031320080319212DA230D8
:101A4000222DA0300A128A1538230A128A1583160D
:101A500021080A128A1538230A128A1583162308C8
:101A60000A128A1538230A128A150A168A11F227D1
:101A70000A128A15013083120313C5004508831624
:101A8000A20783124308BD004208BC000A128A154F
:101A900070240A128A15C500C60183162408831211
:101AA0004606031D572D8316230883124506031986
:101AB00008000A308316220203180800152D0313AC
:101AC000AB0000308312C5000030C4000030C300FA
:101AD000FF30C20083162B08A500A601A701A801AC
:101AE00028088312B800831627088312B7008316CC
:101AF00026088312B600831625088312B5008316C4
:101B00001208A900AA010310A90DAA0D0310A90D1E
:101B1000AA0D033029048312B900003083162A0469
:101B20008312BA00BB01BA1BBB033B08BC000A12FC
:101B30008A15AD230A128A153808C9003708C8006B
:101B40003608C7003508C6000A128A118D260A1207
:101B50008A1543088316AD00831242088316AC0031
:101B60002D08A6002C08A5000310A60CA50C031038
:101B7000A60CA50C25088312950083162C080339A2
:101B8000A50003300310A50DFF3E031DC22D031059
:101B9000250D0F3883129700080083128910091150
:101BA0001430B5000030B6000A128A1511210A124D
:101BB0008A1589146330BD003D08BB0038300A1215
:101BC0008A1532210A128A150530B5000030B60098
:101BD0000A128A1511210A128A156330BD003D08C8
:101BE000BB0038300A128A1532210A128A150130D8
:101BF000B5000030B6000A128A1511210A128A15A2
:101C00006330BD003D08BB0038300A128A1532210E
:101C10000A128A156330BD003D08BB0008300A1265
:101C20008A1532210A128A156330BD003D08BB00B7
:101C30000F300A128A1532210A128A156330BD004C
:101C40003D08BB0001300A128A1532210A128A159A
:101C50006330BD003D08BB0038300A128A153221BE
:101C60000A128A156330BD003D08BB0080300A129D
:101C70008A15322108000C1C772E0C10CF308F00F3
:101C80002C308E000A304D064E04031D712E01309B
:101C9000CB070318CC0A0030CC07CD01CE0133307E
:101CA0004B064C04031D772EBA30A0000130A10072
:101CB0000D30A2008830A3004F30B0003008A400DF
:101CC0000A128A115B250A128A15BA30F100013016
:101CD000F2000A128A152E220A128A15CB01CC01B3
:101CE000772E0130CD070318CE0A0030CE078B1CAB
:101CF000A42E8B105A0803198C2E871287140711F3
:101D000097019001CB01CC01CD01CE016330B00031
:101D10003008F6000830962E87160F3097003130C5
:101D200090006330B0003008F6000F300A128A15B8
:101D300053210A128A155A08031DA02E0130A12E24
:101D40000030B0003008DA003408FF0033088A00A1
:101D500032088400310E8300FE0E7E0E0900BF01A2
:101D6000B81FBF2EB509B609B709B809B50A0319D6
:101D7000B60A0319B70A0319B80ABF01BF0ABC1F84
:101D8000D02EB909BA09BB09BC09B90A0319BA0AA4
:101D90000319BB0A0319BC0A0130BD003D08BF0688
:101DA0000030C3000030C2000030C1000030C0006D
:101DB00038083704360435040319252FBE01BE0A3E
:101DC000B81BF02E0130BD000310B50DB60DB70DD8
:101DD000B80DBD0BE42E0130BD003D08BE07E02E5E
:101DE0000130BD000310C00DC10DC20DC30DBD0BF0
:101DF000F22E38083C02031D072F37083B02031D53
:101E0000072F36083A02031D072F35083902031C35
:101E1000182F3508B9023608031C360FBA023708E6
:101E2000031C370FBB023808031C380FBC024014D8
:101E300001300310B80CB70CB60CB50CFF3E031DF7
:101E4000192F0130BE02031DF02E3F080319332F56
:101E5000C009C109C209C309C00A0319C10A03198B
:101E6000C20A0319C30A4308B8004208B700410870
:101E7000B6004008B5000800831203138811081546
:101E800088140814B501B601013083120313B50795
:101E90000318B60A0030B6073608803AFF008030D3
:101EA0007F02031D552F05303502031C442F83127A
:101EB0000313061C8819602F061C5C2F31300800A4
:101EC000861C8819672F861C632F32300800061D78
:101ED00088196E2F061D6A2F3330080088150811E7
:101EE00088140814B701B801013083120313B7072F
:101EF0000318B80A0030B8073808803AFF0080306D
:101F00007F02031D852F05303702031C742F8312B7
:101F10000313061C0819902F061C8C2F3430080060
:101F2000861C0819972F861C932F35300800061D34
:101F300008199E2F061D9A2F36300800881508159F
:101F400088100814B901BA01013083120313B907CC
:101F50000318BA0A0030BA073A08803AFF00803006
:101F60007F02031DB52F05303902031CA42F8312F5
:101F70000313061C8818C02F061CBC2F373008001E
:101F8000861C8818C72F861CC32F38300800061DF2
:101F90008818CE2F061DCA2F39300800881508155D
:101FA00088140810BB01BC01013083120313BB0766
:101FB0000318BC0A0030BC073C08803AFF008030A0
:101FC0007F02031DE52F05303B02031CD42F831233
:101FD0000313061C0818F02F061CEC2F2A300800EB
:101FE000861C0818F72F861CF32F30300800061DBA
:101FF0000818FE2F061DFA2F23300800783008003D
:102F6E008C1EB72F1A0808003034383436343234F9
:102F7E00003441309F00023083169F0008008316F4
:102F8E0007128312871507160800F00070088312C7
:102F9E009900831698180800D02F8312B5003508B3
:102FAE009900831698180800D82F64008001840AAF
:102FBE000406031900340406DD2F19309900871713
:102FCE00071318139816181218158312981718133A
:102FDE0018168C120800871507120A128A158420FB
:102FEE000A168A118312031307160A128A158420F1
:022FFE000800C9
:02400E003A3F37
:00000001FF
