:100000000A128A11FC2FFF1B0D2883137F188317F8
:100010000008840A0319FF0A080000308A00040857
:10002000840A82070034013400340A340034643412
:100030000034E8340334103427340D340A342034C7
:10004000503469346334733469346D346C346134DE
:1000500062340D340A3420345434653473347434C7
:1000600065342034533465347234693461346C340B
:100070002034543458340D340A3400344134633459
:1000800065346E3464346534723420344C34453411
:1000900044342034443430340034433461347234D2
:1000A0007234653467346F347534203465346D349C
:1000B0002034423431340034413444344334203425
:1000C000763461346C34753465343A3400344234F7
:1000D00065346D342034763469346E3464346F346E
:1000E00000343234303420346134203453344134D9
:0A00F0004434003425346434003435
:1008D800F000700888000800023083169F0041303D
:1008E80083129F000800F000700883129900831695
:1008F800981808007B2C67308316990018139816EF
:100908001812181583129817181318160800F301EF
:10091800F40171087402031D932C70087302031804
:100928000800F50100000000000000000000013090
:10093800F2007208F507C8307502031C962C0130C6
:10094800F3070318F40A0030F4078D2CF301F401BF
:1009580071087402031DB22C700873020318080092
:10096800F501000000000000000000000130F20066
:100978007208F507C8307502031CB52C0130F3075F
:100988000318F40A0030F407AC2CF6008914760832
:100998000A128A116C240A128A1109150330F00010
:1009A8000030F1000A128A11AA240A128A1183124D
:1009B800031389100330F0000030F1000A128A1185
:1009C800AA248312031389140800A001A1017A1C28
:1009D800F32C7C08A0070318A10A7D08A1070130A1
:1009E8000310FC0DFD0DFF3E031DF42C0130031018
:1009F800FB0CFA0CFF3E031DFB2C7A087B04031D3D
:100A0800EB2C2108FB002008FA000800F6008312EE
:100A18000313891476080A128A116C240A128A119F
:100A280009110330F0000030F1000A128A11AA24DB
:100A38000A128A118312031389100330F000003060
:100A4800F1000A128A11AA248312031389140800D8
:100A5800FA017A087707840078080318780AFF00F3
:100A68000A128A1103200A128A11003A031908008F
:100A78007A087707840078080318780AFF000A12B2
:100A88008A1103200A128A110A128A11C9240A1229
:100A98008A110130F9007908FA072D2DFD0001307F
:100AA8000A128A110A250A128A1180300A128A113A
:100AB8000A250A128A117D08F7000030031D8030CC
:100AC800F8000A128A112C250A128A11C0300A125B
:100AD8008A110A250A128A117B08F7007C08F80097
:100AE8000A128A112C250800F200F3017308720714
:100AF80084000A128A110D200A128A11003A031979
:100B0800972D7308720784000A128A110D200A12A1
:100B18008A110A128A1177240A128A110130F10007
:100B28007108F3077A2D0A300A128A1177240A12FB
:100B38008A110D300A128A11772408002A082B041A
:100B48000319CF2DAF01AF0AAB1BB62D013003102F
:100B5800AA0DAB0DFF3E031DAB2D0130AE002E08D4
:100B6800AF07A82D2B082D02031DBC2D2A082C0227
:100B7800031CC42D2A08AC022B08031CAD03AD02CC
:100B880001300310AB0CAA0CFF3E031DC52D01302C
:100B9800AF02031DB62D2D08AB002C08AA000800D3
:100BA800F900DD2D0130DB2D0930DB2D11309F00E0
:100BB800E82D7908003A0319D62D013A0319D82DE2
:100BC800033A0319DA2DE82D1F151F19E92D83168D
:100BD8001E08F20006300310F20CFF3E031DEF2D35
:100BE8007208F300F40183121E08F500F6010310E1
:100BF800F50DF60D0310F50DF60D73087504F700E5
:100C080074087604F8007708F0007808F100080006
:100C1800A701A801220823040319432EA901A90A40
:100C2800A31B222E01300310A20DA30DFF3E031DAE
:100C3800172E0130A6002608A907142E013003102C
:100C4800A70DA80DFF3E031D232E23082502031D13
:100C58002F2E22082402031C382E2208A40223085F
:100C6800031CA503A502271401300310A30CA20C32
:100C7800FF3E031D392E0130A902031D222E28082C
:100C8800A3002708A2000800831289100911143054
:100C9800F0000030F1000A128A11AA240A128A11FF
:100CA80083120313891438300A128A110A250A128A
:100CB8008A110530F0000030F1000A128A11AA24C6
:100CC8000A128A1138300A128A110A250A128A1160
:100CD8000130F0000030F1000A128A11AA240A1229
:100CE8008A1138300A128A110A250A128A11083024
:100CF8000A128A110A250A128A110F300A128A1159
:100D08000A250A128A1101300A128A110A250A12C2
:100D18008A1138300A128A110A250A128A1180307B
:100D28000A128A110A250800C33083168500033089
:100D3800860081308700880189010A128A114826B5
:100D48000A128A110A128A117F240A128A110A12B7
:100D58008A1170240A128A1188015F30FB008030E2
:100D6800FC0055300A128A1152250A128A1188018C
:100D780007308316850083128618BF2E0B300A129F
:100D88008A1178250A128A11831287142C30FB00E5
:100D98008030FC003B300A128A1152250A128A114F
:100DA80002308800C830F0000030F1000A128A11C1
:100DB8008B240A128A11831203138801C830F000A9
:100DC8000030F1000A128A118B240A128A11831248
:100DD80003138716CA30A2000030A30002300A129B
:100DE8008A11D4250A128A117108FB007008FA00CA
:100DF8006430FC000030FD000A128A11E9240A124E
:100E08008A117B08A5007A08A4000A128A110C2608
:100E18000A128A112208BD003D08C8006830BD00CA
:100E28003D08B0004808BE00BF013E08B1003F08B9
:100E3800B20042300A128A1130270A128A1142304F
:100E4800FB000030FC004A300A128A1152250A12AF
:100E58008A11861CB12E2D2FBB003130B300330808
:100E6800B6000130B007FF30300784000A128A113B
:100E78000D200A128A11B3003308BC003C0803197C
:100E8800F72F25303C060319552F3C08B3003B08C3
:100E980084003308831380000130B3003308BB0794
:100EA800352FB7010130B007FF30300784000A1230
:100EB8008A110D200A128A11BC00003A0319F72F73
:100EC800643A03196B2F0D3A03196B2F352F360827
:100ED800840083130008B900840A0008BA000230AD
:100EE800B3003308B607BA1F822F0330B3003308A4
:100EF800B704B909BA09B90A0319BA0ABC01BC0A84
:100F08003C08B3003307013E84000A128A110D2001
:100F18000A128A11B4000A128A110D200A128A11C3
:100F2800B50035083A02031D9B2F34083902031C0B
:100F3800A52F0130B3003308BC0705303C06031D5C
:100F4800842F370803390319B42F2D30B3003B0819
:100F580084003308831380000130B3003308BB07D3
:100F68003C08B3003308B800FF30B3003308B807B3
:100F7800380A0319352F0A30AA000030AB003808A8
:100F8800B3003307013E84000A128A110D200A12A9
:100F98008A11A2000A128A110D200A128A11A300CE
:100FA8003A08A5003908A4000A128A110C260A1268
:100FB8008A112308AD002208AC000A128A11A22562
:100FC8000A128A112A08303EB4003408BC003C08D2
:100FD800B3003B0884003308831380000130B3005A
:100FE8003308BB07B82F3B0884008313800108002F
:080FF80083010A128A11982EF0
:02400E003A3F37
:00000001FF
